:020000041000EA
:1000000000B5324B212058609868022188439860DF
:10001000D860186158612E4B002199600221596106
:100020000121F02299502B49196001219960352056
:1000300000F044F80222904214D00621196600F024
:1000400034F8196E01211966002018661A6600F04E
:100050002CF8196E196E196E052000F02FF8012189
:100060000842F9D1002199601B49196000215960AB
:100070001A491B48016001219960EB211966A021F2
:10008000196600F012F800219960164914480160C1
:100090000121996001BC002800D000471248134993
:1000A000086003C880F30888084703B5996A0420EC
:1000B0000142FBD001200142F8D103BD02B5186610
:1000C0001866FFF7F2FF186E186E02BD00000240BE
:1000D000000000180000070000035F00212200005C
:1000E000F4000018222000A00001001008ED00E03C
:1000F00000000000000000000000000074B24E7A12
:1001000000200420F7010010C3010010C5010010F9
:10011000C1010010C1010010C1010010C101001097
:10012000C1010010C1010010C1010010C701001081
:10013000C1010010C1010010C9010010CB01001065
:10014000CD010010CD010010CD010010CD01001037
:10015000CD010010CD010010CD010010CD01001027
:10016000CD010010CD010010CD010010CD01001017
:10017000CD010010CD010010CD010010CD01001007
:10018000CD010010CD010010CD010010CD010010F7
:10019000CD010010CD010010CD010010CD010010E7
:1001A000CD010010CD010010CD010010CD010010D7
:1001B000CD010010CD010010CD010010CD010010C7
:1001C00000BE00BE00BE00BE00BE00BE00F04BF888
:1001D000103800BEF2EB887150A70010A0A70010E5
:1001E0003402001090A31AE700202149086006C8D5
:1001F00081F3088810471F48006800282FD10DA4FC
:100200000ECC002902D000F012F8F9E71A491B4A77
:10021000002000E001C19142FCD1194988471949E9
:1002200088471949884700BEFDE701C901C29A42C3
:10023000FBD37047A0A70010C0000020A00E002034
:1002400080B50010000004200000042080B50010DC
:1002500000100420001004200000000070470B482C
:1002600005F0DCF90047EFF30580C0B270470000ED
:1002700008ED00E0000000D0A00E0020581D002076
:100280006D3A0010010400105D3B0010575600004D
:1002900006005250ABB36053D8A300100600525072
:1002A000861C0302E8A30010060052505422A29DAF
:1002B000F4A3001005005250DE65F46880B500100C
:1002C000F8B5C0460448054B10B5834203D0044B33
:1002D000002B00D0984710BDA00E0020A00E0020DB
:1002E0000000000006480749091A8B10C90FC918F9
:1002F00010B5491003D0044B002B00D0984710BD17
:10030000A00E0020A00E00200000000010B5074C39
:100310002378002B09D1FFF7D5FF054B002B02D026
:10032000044800E000BF0123237010BDB01100207D
:1003300000000000409B0010054B10B5002B03D0BF
:100340000449054800E000BFFFF7CCFF10BDC046E0
:1003500000000000B4110020409B001070B5164C46
:10036000CCB0200008A901F0A5F9099806F038F9E9
:1003700002900391089806F033F9D025802600906A
:10038000019109230AA90D4A0D4806F0B7FB220086
:10039000089B2D06B6056E610693099B203206A9BF
:1003A00008480593079300F049FB0748AE6102F047
:1003B0009BFE4CB070BDC0463C040020409B00102A
:1003C000489B001088030020B80B0000F8B5D0242B
:1003D000802507000E00AD05240600F00FFD06F095
:1003E00099FB1D2001F026FF65623800656101F070
:1003F000C7F900F0FFFC300001F0D4F9A561F8BDA9
:10040000F8B5DE46454657464E46374BE0B5180030
:1004100036499946FFF7DAFF09223549354806F093
:100420006DFB354B354D9846354B9A46FA239B006C
:100430009B4614E0334BEB5C002B51D1A823424682
:10044000D0582018584548D92F4B9C46604402F09C
:100450004BFE00F0EDFDFA20800002F045FE09F0B1
:10046000C7F92A4905F034F90C00514500D94C422E
:10047000FA2229009200484601F0B0F864212000D9
:1004800005F0FEF8080006F051F8214905F0F3FFE9
:1004900006F0A6F81F4A204B06000F0005F064FB8B
:1004A00005F042FC1D4A1E4B28603900300005F063
:1004B00052FB05F039FC01221A4B6860EA54AC2368
:1004C0004246D35C002BB5D0404600F037FCA82351
:1004D0004246D05820185845B6D8FA208000B6E7D2
:1004E000FFF73CFFAAE7C046649C0010789C001010
:1004F000409B00106C9B0010880300203C040020EF
:10050000983A00003505000018FCFFFF3075000028
:1005100000401C4658CA32C4B12E4540EB73B51595
:10052000FBC7514021050000F8B557464E46DE4650
:100530004546E0B5654AD02613780027591C11704E
:100540007E21634A634CD15408239B4676339A46F6
:10055000614B624D9946B6000122534613409846BE
:1005600040466388590843401A4244D1618043465B
:10057000002B1FD02378002B00D182E002F0A2FED6
:10058000801979412860696009E053495A1CC85CA8
:10059000D2B2227100F036FC1A2002F09DFE02F069
:1005A00091FE6B688B4263D92379202BEDD14246B3
:1005B0009820EEE7012223785340237036D002F0D2
:1005C00081FE801979412860696009E049465A1C1A
:1005D000C85CD2B2227100F015FC1A2002F07CFE39
:1005E00002F070FE6B688B4209D92379202BEDD184
:1005F00098200122EEE73A4B4B406380B7E78B42ED
:1006000002D12B688342F0D80023637053465B0805
:100610009A4601235B429C46E3445B46002B9BD1F8
:10062000F0BCBB46B246A946A046F8BD02F04AFE61
:10063000801979412860696009E049465A1CC85C04
:10064000D2B2227100F0DEFB0F2002F045FE02F074
:1006500039FE6B688B4205D92379202BEDD1982088
:100660000122EEE78B42CFD12B688342F4D8CBE74F
:100670008B4202D12B68834296D863780133637032
:10068000C4E702F01FFE801979412860696009E023
:1006900049465A1CC85CD2B2227100F0B3FB0F204D
:1006A00002F01AFE02F00EFE6B688B4205D9237928
:1006B000202BEDD142469820EEE78B42DDD12B680E
:1006C0008342F4D86378013363709FE7511D0020A3
:1006D0005417002074090020F09C0010A00F002087
:1006E0000884FFFFF8B557464E46DE464546E0B55E
:1006F0008D4AD02613788246591C11708B4A0027E8
:10070000D05408239B468A4B8A4C99468A4DB600A2
:100710000122534613409846404663885908434097
:100720001A4244D161804346002B1FD02378002B0E
:1007300000D1A5E002F0C6FD80197941286069600A
:1007400009E07B495A1CC85CD2B2227100F05AFB06
:100750001A2002F0C1FD02F0B5FD6B688B4263D92F
:100760002379202BEDD142469820EEE70122237811
:100770005340237036D002F0A5FD801979412860DE
:10078000696009E049465A1CC85CD2B2227100F087
:1007900039FB1A2002F0A0FD02F094FD6B688B4239
:1007A00009D92379202BEDD198200122EEE7634B64
:1007B0004B406380B7E78B4202D12B688342F0D86D
:1007C0000023637053465B089A4601235B429C46B4
:1007D000E3445B46002B9BD1F0BCBB46B246A94626
:1007E000A046F8BD02F06EFD80197941286069606D
:1007F00009E049465A1CC85CD2B2227100F002FBE3
:100800000F2002F069FD02F05DFD6B688B4205D997
:100810002379202BEDD198200122EEE78B42CFD116
:100820002B688342F4D8CBE78B4202D12B688342FA
:1008300096D863780133DBB26370052BC2D10122F5
:100840002378534023704BD002F03CFD801979414E
:100850002860696009E036495A1CC85CD2B222712E
:1008600000F0D0FA1A2002F037FD02F02BFD6B6881
:100870008B422ED92379202BEDD142469820EEE7EA
:1008800002F020FD801979412860696009E049463D
:100890005A1CC85CD2B2227100F0B4FA0F2002F0E8
:1008A0001BFD02F00FFD6B688B4205D92379202BCD
:1008B000EDD142469820EEE78B42BAD12B688342B5
:1008C000F4D863780133DBB26370052B00D079E78D
:1008D000B5E78B4200D073E72B688342CAD86FE735
:1008E00002F0F0FC801979412860696009E0104944
:1008F0005A1CC85CD2B2227100F084FA0F2002F0B8
:10090000EBFC02F0DFFC6B688B4205D92379202BCE
:10091000EDD142469820EEE78B4200D050E72B689D
:100920008342F3D84CE7C046511D002054170020E5
:10093000F09C001074090020A00F00200884FFFF25
:10094000F0B5C646040000B50C3008F0AFFF804695
:10095000061E4BD025002718287B01354000C0B269
:10096000FFF7C0FEAF42F7D14346052B3ED96020CA
:10097000FFF7B8FE200008F099FF8046061E42D01F
:1009800025002718287801354000C0B2FFF7AAFEDD
:10099000AF42F7D14346052B35D92500A068143561
:1009A00030304000C0B2FFF79DFE280008F07EFF07
:1009B0000700061E34D02B189846287801354000D1
:1009C000C0B2FFF78FFE4545F7D1052F28D9606AE1
:1009D00040006130C0B2FFF785FE0320FFF782FEC2
:1009E000F020FFF77FFE80BCB846F0BD4020013606
:1009F000FFF778FE062EBAD040200136FFF772FED0
:100A0000062EF3D1B3E740200136FFF76BFE062E2A
:100A1000C3D040200136FFF765FE062EF3D1BCE7B8
:100A200040200136FFF75EFE062ED0D04020013672
:100A3000FFF758FE062EF3D1C9E7C046F0B5DE46F3
:100A4000454657464E4690460022B04BE0B51A70D8
:100A5000FF2383B0FF320E0004000021AC489A4609
:100A600005F03CFE012000F0D9FAAA4B98209B46E5
:100A700001235A46137100F0C5F9A74802F02CFC77
:100A800035680021281C05F039FD002800D00CE154
:100A9000281C05F06DFD814605F048FD011C281C51
:100AA00005F0E3FC9D4905F0FAFC051C05F060FD2E
:100AB0005346034018009A4605F038FD011C281CD7
:100AC00005F0D3FC964905F0EAFC05F089FD05F038
:100AD00081F905F01DF95346924DC0B20190009383
:100AE00009214B462800904A04F04EFD766800210B
:100AF000301C05F003FD002800D0A6E0301C05F0F6
:100B000037FD814605F012FD011C301C05F0ADFCDF
:100B1000824905F0C4FCFF26824605F029FD064007
:100B2000300005F003FD011C504605F09EFC7C4999
:100B300005F0B5FC05F054FD05F04CF909239A4683
:100B400005F0E6F8AA44C0B201904B460A2150468F
:100B5000764A009604F018FD43469A885B88002B7D
:100B600001D16933FF33280000920821704A133005
:100B700004F00AFD9626013EFFF7D6FC002EFAD1BE
:100B800001235A465B4220005380FFF7D9FE212003
:100B9000FFF7A8FD280008F089FE2E002F18002876
:100BA00005D030780136FFF79DFDB742F9D13120ED
:100BB000FFF798FD2800093008F078FE2E002F1866
:100BC000002805D0707A0136FFF78CFDB742F9D1C5
:100BD0007320FFF787FD2800133008F067FE2E18FA
:100BE000002805D0E87C0135FFF77CFDAE42F9D145
:100BF0002834200008F05AFE2518002805D0207857
:100C00000134FFF76FFDAC42F9D15B465C88E043ED
:100C1000C0B2FFF767FD200AC043C0B2FFF762FD14
:100C2000FFF782FCFFF780FCFFF77EFC002000F05E
:100C3000F5F9002000F0E6F800F000FA03B0F0BC8F
:100C4000BB46B246A946A046F0BD76007608301CE9
:100C500005F08EFC814605F069FC011C301C05F096
:100C600004FC2E4905F01BFCFF26071C05F080FC48
:100C70000640300005F05AFC011C381C05F0F5FB5D
:100C8000274905F00CFC05F0ABFC05F0A3F805F0D6
:100C90003FF82F00C0B2093701904B460A213800B7
:100CA000244A009604F070FC56E76D006D08281C7D
:100CB00005F05EFC070005F039FC011C281C05F05E
:100CC000D4FB164905F0EBFB051C05F051FC53461F
:100CD000034018009A4605F029FC011C281C05F069
:100CE000C4FB0F4905F0DBFB05F07AFC05F072F858
:100CF00005F00EF853460B4DC0B201900093092148
:100D00003B0028000C4A04F03FFCEFE6511D002098
:100D10005417002074090020EE0200000000704209
:100D20000000C84238160020D49C0010C49C00105B
:100D3000B89C0010A89C0010989C0010002370B56F
:100D400084B06A4602930393002300939380B033E8
:100D5000C358032B08D0042B1BD0022B13D002A99D
:100D6000FFF76CFE04B070BDFFF7EAFD3E20FFF711
:100D7000B9FC2E20FFF7B6FC2E20FFF7B3FC2E2087
:100D8000FFF7B0FCEEE7174B6A460293164B03934E
:100D9000E5E7164C01232500154E5B4273800935AB
:100DA00020780134FFF79EFCAC42F9D17488E0430F
:100DB000C0B2FFF797FC200AC043C0B2FFF792FC15
:100DC000012341205B427380FFF78CFC7488E04371
:100DD000C0B2FFF787FC200AC043C0B2FFF782FC15
:100DE000C0E7C0468E752942D93F8EC2E49C0010F0
:100DF0007409002010B500F027F910BD10B500F0FF
:100E000059F910BDD0231B061A6980045040FF22F7
:100E100092041040D8617047F0B5DE46574645460B
:100E20004E46E0B5A1B003932AAB1B78029204931F
:100E30002BAB1B780A0081468A4601006C4805935B
:100E400005F05CFE01216B4808F042FB6A4B07008D
:100E5000190068489B4608F059FB80235B018046D7
:100E60001A003900634808F0EBFB80235B011A008D
:100E70003900604808F026FC06210C2001F0C2F978
:100E800080235B020793434642460333D2011B0390
:100E900013435A4A052013408022D2051343089376
:100EA000574B0A93574B099302F0D6FF05F038FBD6
:100EB000554905F0E0FA051C05F08CFB84B20023CF
:100EC000002C0ED0200005F02BFB011C281C05F087
:100ED000CCFA8721C90505F0E2FA05F07BFBC3B225
:100EE0001B0224041C4307940124424D424639004E
:100EF00007AB280008F02AFC2300BB402A68AC4658
:100F000013432B603B0010339C404121BE003F4AFD
:100F1000664401326B681C42FCD1316111780029B2
:100F2000F7D1FA20800002F00BFA534638494A46BE
:100F300007A804F015FB04AB197B07A8002908D00B
:100F40002C4A013053681C42FCD1316101780029E0
:100F5000F7D1FA20800002F0F3F9029B013B072B46
:100F600001D9042302932B49029A07A804F0F8FA46
:100F700004AB197B07A8002908D01E4A013053682A
:100F80002342FCD1316101780029F7D1FA20800099
:100F900002F0D6F9059B20490093039A049B07A809
:100FA00004F0DEFA04AB197B07A8002908D0114A27
:100FB000013053682342FCD1316101780029F7D117
:100FC000FA20800002F0BCF942465946094808F070
:100FD00001FB3900074808F06BFA064808F014FBDB
:100FE00021B0F0BCBB46B246A946A046F0BDC04603
:100FF000209D001000002050989E0010FFFFFF9FD2
:101000000C30104000000C4000009647109D00106E
:10101000609D0010889D0010A09D0010D0238022AC
:101020001B065202002801D05A6170479A61FCE702
:10103000D02380221B06D2015A617047D023802220
:101040001B06D2019A617047962070B5D024802685
:10105000802582B08000240602F046F87602102037
:1010600001F0E8F8ED0166620E20A66101F0E2F8F9
:1010700065620F20656101F0DDF88023FA201B0214
:10108000A362800002F030F80023094801930100B8
:1010900000930422FFF7C0FEA6616561FF25AD0441
:1010A000280001F0E5F8236A9D43E56202B070BDB7
:1010B000449E00107047C046F0B54E464546DE4699
:1010C0005746E0B50E009BB000210500140000F06B
:1010D00037FF072800D197E012DC02282AD0032826
:1010E00007D106AF2900380001F02AF8002800D007
:1010F0002BE11BB0F0BCBB46B246A946A046F0BDF2
:101100000928F6D1BF4805F0F9FC290006A801F02E
:1011100049F8BD4B9846A044002800D088E1BB4B5D
:10112000E65C002E00D0E4E1B94A4146B94805F03A
:10113000E5FCDEE706AF2900380000F0C3FF002819
:10114000D7D02000263029003200FF3005F0CCFA3D
:101150007D69002D00D1CEE1AF4BB04AEB18934230
:1011600000D9C8E164213869694304F089FA0600AE
:10117000080005F0DBF92B015D1B8046A80005F097
:10118000D5F9011C404605F076F9051C300005F044
:10119000CDF9011C281C05F06BF9061CFD69002D1A
:1011A00000D1C4E19C4B9D4AEB18934200D9BEE1AB
:1011B0006421B869694304F063FA0700080005F088
:1011C000B5F92B015D1B8046A80005F0AFF9011CA5
:1011D000404605F050F9051C380005F0A7F9011C40
:1011E000281C05F045F9311C051C05F08DF9002877
:1011F00000D09CE18A4BA660E5600122E254022205
:10120000884BFF32E25274E706AF2900380000F045
:1012100011FF002800D16CE789239B0029003200D0
:10122000E01805F061FABD69002D00D167E17A4B45
:101230007A4AEB18934200D961E1642178696943E5
:1012400004F01EFA0600080005F070F92B015D1B82
:101250008046A80005F06AF9011C404605F00BF92C
:10126000051C300005F062F9011C281C05F000F98E
:10127000061C3D6A002D00D143E1674B674AEB181D
:10128000934200D93DE16421F869694304F0F8F91B
:101290000700080005F04AF92B015D1B8046A800F5
:1012A00005F044F9011C404605F0E5F8051C38003E
:1012B00005F03CF9011C281C05F0DAF8311C051C6E
:1012C00005F022F9002800D01BE10122564BE25420
:1012D0000222544BFF32E2522661129E6561119D3B
:1012E000002E00D11EE1032E00D112E100DC0BE143
:1012F000E817401BEB0FC00FC01A0621704304F023
:10130000BFF903214519300004F0BAF901002800A3
:1013100004F0B6F985B2109965840F9D002900D1BB
:1013200002E1012900D1FAE000DCF4E0EB175B1BDD
:10133000EA0FDB0F9B1A4B43D80FC018401040191F
:1013400004F09EF985B2A584D3E62000290032007E
:10135000263005F0C9F97D68002D00D1CDE02E4B77
:101360002E4AEB18934200D9C7E0642138686943DC
:1013700004F086F90600080005F0D8F82B015D1B83
:101380008046A80005F0D2F8011C404605F073F82D
:10139000051C300005F0CAF8011C281C05F068F88F
:1013A000061CFD68002D00D1C6E01B4B1B4AEB1844
:1013B000934200D9C0E06421B868694304F060F941
:1013C0000700080005F0B2F82B015D1B8046A8005D
:1013D00005F0ACF8011C404605F04DF8051C38003E
:1013E00005F0A4F8011C281C05F042F8311C051C6E
:1013F00005F08AF8002800D09EE00C4B266065605E
:10140000FBE6C046B89E001022040000360500002E
:10141000B09E0010C09E001014AE4701285C8F02E1
:10142000220500003405000023050000210500000E
:1014300032002900404605F057F90C9F414BFE173A
:10144000F61B0B9DF60FE6543BB29B466BB2019325
:101450000A9BEDB29A465BB20293069BBFB2043B75
:101460005BB2039306AB1B795BB2049306AB1B7AAA
:101470005BB20593022D03D80C35013FEDB2BFB22C
:101480006421380004F024F9642183B238009946BD
:1014900004F01EF95A462C4BFF27E2522B4B019ABF
:1014A00089B2E254029A2A4B0135E25453461F4056
:1014B0004B46013F98087F183F18890858007F184D
:1014C0003F1A6800401980000521401904F0D8F83F
:1014D0000721381804F0FCF8A623DB00E154039A36
:1014E0001C4BE2541C4B049AE2541C4B059AE254E8
:1014F00017E61B4A19E61B4E50E61A4E51E7194EE5
:10150000B7E6194D194EE7E63100032004F0B8F8AC
:101510004543ADB2FFE6012004F0B2F84543ADB259
:10152000A584E6E50025F6E60025A584E1E50F4B58
:10153000A3600D4BE360DCE50C4B23600A4B63605A
:10154000D7E5C046360500002C0500002E0500003A
:101550002F050000310500003205000033050000B2
:10156000A89E00100000C07FF83375C27305754156
:10157000F0B506000D0000271024C1B0F268936991
:101580001C421DD193691C42FCD11368DBB2242B91
:10159000F5D16846791CC3552000936918401C4258
:1015A000FAD11368DBB2242B06D04F1C0D2B0BD0C5
:1015B000684643543900EFE769460B700121EBE7B9
:1015C000054BE85C41B0F0BD6B462A0058546846B4
:1015D000FFF772FDD2E7C04635050000F0B5C646FC
:1015E0001600002200B5304B8AB0CA5405000C002A
:1015F00001F068FE002950D0FA220023920004F086
:10160000A9F80700284B98464346E35C002B11D10C
:1016100021002800FFF7ACFF00280BD101F052FE9B
:10162000002932D0FA220023920004F093F8C01B64
:101630008642E9D201221C4B2068E25404F0D0FF1C
:10164000060060690F0004F0CBFF08900991206943
:1016500004F0C6FF06900791E06804F0C1FF049013
:101660000591A06804F0BCFF02900391606804F04B
:10167000B7FF3200009001913B000C490C4805F087
:101680003DFA0AB080BCB846F0BDFA21890004F0EA
:101690001FF8C01BB042B7D9CCE7FA21890004F08B
:1016A00017F80700AEE7C04635050000A89E0010F9
:1016B000D49E001010B5274BC35C002B10D0264BD6
:1016C000C25C002A1BD1254BC45C002C24D1244BC6
:1016D000C25C002A2CD1234BC45C002C34D110BD39
:1016E000862301225B00CA541F4B04320B601F4B40
:1016F0004B60083108001E4904F0F6FFEFE702686E
:101700000A6042684A6000220831C254080004326C
:10171000184904F0E9FFE2E784680C60C4684C6093
:101720000831C25408000422134904F0DDFFD6E753
:1017300002690A6042694A60C45408310800042200
:101740000E4904F0D1FFCAE784690C60C4694C609B
:10175000C254F2E735050000210500002205000013
:10176000230500002405000073057541F83375C298
:101770001C9F0010189F0010149F0010249F001041
:1017800070B581680400C06802F000F9050002210C
:10179000206800F037FD6068022100F033FD28006A
:1017A00070BDC04670B581680400C06802F0EEF8F4
:1017B00005000221206800F025FD6068022100F08C
:1017C00021FD280070BDC04670B504000D0008F072
:1017D0006DF8532842D823780020242B3FD162781B
:1017E000631C0024002A37D06821234E07E0B05C38
:1017F000884331D0013354401A78002A2CD02A2A49
:10180000F5D15A7811003039C8B209282ED9110003
:101810004139052928D91100613905291ED8573ABF
:10182000997808003038C5B2092D21D9080041380F
:1018300005281FD90800613805280FD8573912012B
:1018400000200A430333A24209D118780D2801D0A1
:101850000A2805D10133F8E7002DF6D0002070BD2D
:1018600043425841C0B2FAE7373AD9E70A00D7E70E
:101870000100E4E73739E2E74DA600100EB4F0B5F9
:10188000DE4657464E4645460023E0B59B4686B0A9
:1018900000280AD1584606B0F0BCBB46B246A9465D
:1018A000A046F0BC08BC03B0184710AB04930F9BD4
:1018B0001B78002B00D119E35A4601920F9A0700BA
:1018C0008046914601229446E1443B2B32D0424669
:1018D000002A23D0443BDBB2302B1CD8C94A9B00E2
:1018E000D3589F464346002B00D19AE268211B78CB
:1018F000C54CE25C8A4300D1ECE11A0095312A3AEA
:101900000A4200D1E6E1532B00D173E200D8A5E0F2
:10191000572B00D16EE200239B46BBE7019A002AB9
:1019200000D1E1E2443BDBB2302BF4D8B74A9B0054
:10193000D3589F46012301934B461B78002BC1D1FE
:1019400001339B46A6E74346002BE4D01B78242BAB
:10195000E1D143465A78591C6823AB4CA05C9843AC
:10196000D9D002202A3A8243D2B2002AD3D04246AA
:101970009278A55C9D43CED02A3A8243D2B2002A07
:10198000C9D04246D578625D9A43C4D02A002A3A2B
:101990008243D2B2002ABED042461579625D9A4394
:1019A000B9D02B002A3B8343DBB2002B00D19FE14F
:1019B000434668205A79A35C834300D198E1FD2314
:1019C0002A3A1A42A7D0049B1D681A1D04922800C7
:1019D000052204F089FE00236B7168213A78A35C2C
:1019E0008B430DD12C2A00D087E10137B846A3E7FD
:1019F0002A2A00D181E17A780137A35C8B43F1D0A8
:101A00002C2AF5D1F1E74346002B00D172E10A22DE
:101A100005A9404608F03EF86821059B7A4C1A78E3
:101A2000A35C8B4304D0FD232A3A1A4200D072E70C
:101A3000049B1A1D1B6804921860CEE74346002BD6
:101A400000D05DE1002300269A466F4C049B1A1DCE
:101A5000049252461B681E605A60BEE7452B02D0B6
:101A60004E2B00D057E70122049B191D1B680491DF
:101A70001A60B2E74346002B00D1C4E168211A780E
:101A8000614CA35C8B4307D011002A39FD200B0069
:101A90000340014200D01300049A111D1268049102
:101AA00013709AE7049B1A1D1D6843460492002B8D
:101AB00000D073E1544C00232B708EE7049B1A1D59
:101AC0001B6804929A464346002B00D1FBE11A782A
:101AD0004D4C6823A15C0800984300D1FCE0130042
:101AE000FD202A3B034200D1F6E004230B4200D143
:101AF00011E741464D78615D0B4200D10BE741464D
:101B00008878215C0B4200D105E74146C978665CC4
:101B1000334200D1FFE646463679B346A65D3342EE
:101B200000D1F8E646467679B446A65D334200D148
:101B3000F1E602AB1A705D70002302AA93705A4658
:101B400005AD2A70624603AEB370AB703070717031
:101B50006A7000210A2202A807F09CFF0A220021D5
:101B60008346300007F096FF0A2206000021280075
:101B700007F090FF43469A7900232E2A00D0B0E068
:101B80004346DB792A3AE15C0A4200D1C8E141468A
:101B9000097A303B655C2A4200D1BEE19D00EB181A
:101BA0005B005B184146497A303B655C2A4200D1B4
:101BB000B0E19D00EB1830395B00CB184146897AC3
:101BC000655C2A4200D1A1E19D00EB1830395B0031
:101BD000CB184146C97A655C2A4200D190E19D004C
:101BE000EB1830395B00CB184146097B655C2A4213
:101BF00000D182E19A00D31801225B003039CB1862
:101C000053436EE0289F00104DA60010EC9F00107B
:101C1000049BC54C1A1D1B6804929A4643461978CA
:101C20006822635C1800904300D1D6E00A00FD20D2
:101C30002A3A024200D1E2E004251D4200D16AE6C0
:101C400043465B78E25C9B46154200D163E6424620
:101C50009078B54A125C154200D15CE64246B24E1D
:101C6000D278B65C354200D155E646463679B44660
:101C70006346AD4EF65C354200D14CE643465B7997
:101C800098464646A84B9E5D354200D143E603AEDA
:101C900002AB197072705946624605AD59702A70D0
:101CA0000023424602A98B70B37030706A70AB702B
:101CB0000A22002102A807F0EDFE0A228046002138
:101CC000300007F0E7FE0A2206000021280007F096
:101CD000E1FE86E00022C7E601235B4218001E00F9
:101CE0009B4652465946566011609060D36074E638
:101CF0009B46CFE500208C4C9AE6002398461BE6D5
:101D00001D78894C6823625D110099436FD00023D0
:101D10009A469B46230001264446984676422B006D
:101D200002212A3B8B43DBB2002B26D02B2D00D186
:101D30009AE02D2D78D15B46002B00D087E0731CF4
:101D400000D1B7E00423134200D1E4E5032577482E
:101D50006D42B04200DABDE0B3009E1976007619FC
:101D600053469B0053445B009A464346657868217E
:101D70005A5D013413008B43D1D15B464446002B9E
:101D800000D199E0731C00D1C5E55346002B01D169
:101D900001239A465B4673431E0057E66822197872
:101DA000614C635C934300D185E602232A009C4684
:101DB0006820BA4646460B0067462A3BBB43DBB267
:101DC0001500002B66D0297071780136635C0132F2
:101DD0008343F0D1150057466DE6012040420600CE
:101DE0008046534642465E601A609860F5E58A4632
:101DF00000262BE60122524236E64B4CEDE5FE383A
:101E000006008046EDE70023474C45E60120049B91
:101E100040421A1D1B6806009A468046424C0492B6
:101E2000DFE70022404C1FE60423134213D12E2D7E
:101E300027D0202D00D06EE5731C00D06BE55B46EB
:101E4000524613439B4600D065E59A468DE704232E
:101E5000134200D15FE5303D731C19D0344B0A2189
:101E6000581B03F00DFC74E75B46002BEFD1731C8D
:101E700012D00423134200D14DE505252B486D42B5
:101E800067E75346002B00D045E501239A466CE7EF
:101E90002E0065E757460EE601239B4643466578CC
:101EA00068215A5D013413008B4300D120E70126DD
:101EB000764234E7B346F1E75346002B19D0731C42
:101EC00000D0C3E527E501235B4218001E009B46B6
:101ED000154C06E753464446002B00D108E75B4605
:101EE000002B00D056E7EAE79346D3E401239B4654
:101EF000D0E4731C07D10026A8E50A225343F0E67C
:101F000064225343EDE601239A469FE5FA229200AC
:101F10005343E6E6074A5343E3E6074A5343E0E602
:101F20000023064A5343DCE64DA60010343333F356
:101F3000FFFFFF7F10270000A086010040420F0036
:101F400010B582B00400FFF73FFC00285BD06A4662
:101F500020002E49FFF792FC002854D06B462C49F4
:101F6000981C07F05FFC00283CD06B462949981C60
:101F700007F058FC00283CD06B462749981C07F016
:101F800051FC002831D06B462449981C07F04AFCCC
:101F9000002830D06B462249981C07F043FC0028EB
:101FA0002BD06B461F49981C07F03CFC00281ED024
:101FB0006B461D49981C07F035FC00281FD06B4666
:101FC0001A49981C07F02EFC00281AD06B461849B5
:101FD000981C07F027FC431E984108234042984371
:101FE000093000E0012002B010BD0320FBE706200D
:101FF000F9E70220F7E70420F5E70520F3E70720DB
:10200000F1E70820EFE701204042ECE788A4001048
:10201000B0A00010149F0010189F0010B4A0001072
:10202000B8A00010BCA00010249F0010C0A0001099
:10203000C4A0001030B5040091B00DAB099323008B
:10204000403308930C3B0793083B0693083B0593EA
:102050000CAB049323001C3303930BAB02932300BC
:10206000143301932B236B4408000093134923007E
:102070000EAAFFF703FC051E1AD03A201049684447
:1020800007F0D0FB002816D12B226B469B181B783B
:10209000413B5A425341626923740B9B5343E269AB
:1020A00063610C9B5343226CE3610D9B5343236498
:1020B000280011B030BD0025FAE7C046C8A00010C6
:1020C000249F001030B50400230091B048330B93D7
:1020D000043B0A93083B0993043B0893083B07938E
:1020E000083B0693043B0593043B04930DAB039319
:1020F0002300183302930CAB019323001033080024
:1021000000930D4923000EAAFFF7B8FB051E0ED061
:102110003A200A49684407F085FB00280AD1226961
:102120000C9B5343A26923610D9B5343A361280079
:1021300011B030BD0025FAE7D8A00010149F0010A0
:1021400030B5040023008BB021330593013B049389
:10215000103B039307AB029323000833019306ABB4
:10216000080000930D49230008AAFFF787FB051E0E
:102170000ED022200A49684407F054FB00280AD1F7
:102180002268069B5343A2682360079B5343A360C6
:1021900028000BB030BD0025FAE7C046E8A00010CB
:1021A000189F001010B50400230088B0203304935A
:1021B000043B0393043B0293043B0193043B08005C
:1021C00000930E49230006AAFFF758FB002811D000
:1021D0001A200B49684407F025FB00280CD1E3695D
:1021E000DA179B1853400D2B06DC3B22236A9A42D8
:1021F0004041C0B208B010BD0020FBE7F4A00010C1
:10220000C4A00010094A830094464022634410B5DC
:102210001C68C0006240C024144080225201134355
:102220001C60034B9C466044416010BD04C00140EB
:10223000004001400123D022834012069362936143
:10224000094A83009446402263441968C0004A400A
:10225000C02111408022520113431960034B9C4658
:10226000052360444360704704C0014000400140C2
:102270004021F0B5D6464F46464688468031D025A7
:102280008C46C0B5BB398027002301248A46104AFA
:102290002D067F01044211D0210099404646A962D3
:1022A000A96111687140664631403E0016433160B5
:1022B000084ED900B146564649440E6001334008E5
:1022C00004321E2BE6D1E0BCBA46B146A846F0BDAA
:1022D00004C0014004400140EFF3108072B6034A8D
:1022E0001368002BFCD0BFF35F8F70472C0100D028
:1022F000BFF35F8F0022024B1A6080F31088704793
:102300002C0100D070B5EFF3108C72B60D4D2B6818
:10231000002BFCD0BFF35F8F0724CB08C618C05C2E
:1023200001230C40A3401C000440034207D1034397
:102330003370BFF35F8F2C608CF3108870BD10007A
:1023400001F00EFC2C0100D0F8B54746CE46884679
:1023500080B5EFF3108C72B6214D2C68002CFCD0A8
:10236000BFF35F8F9A422CD8D4080727055D061962
:1023700001241740BC402C421FD007210127894669
:1023800009E0D408055D06194C4639001440A14007
:102390000C00294211D001329342F2D20120404276
:1023A000BFF35F8F00220E4B1A608CF31088002859
:1023B0000FDBC0BCB946B046F8BD2C4310003470EA
:1023C000EEE7BFF35F8F00232B608CF310880120B2
:1023D00040424346002BECD0089801F0C1FBC046B8
:1023E0002C0100D030B5EFF3108C72B60A4C236884
:1023F000002BFCD0BFF35F8F07230122CD081940CB
:102400008A40435D93434355BFF35F8F00232360AE
:102410008CF3108830BDC0462C0100D0024B1868E8
:102420008007C00F7047C04600C006400021044B23
:10243000044ABFF35F8F02C39342FAD17047C0468C
:10244000000100D0800100D0044A1078431CDBB2A8
:10245000172B00D9102313707047C0467A0900204B
:1024600000B5054B83B00100009318221F230348D9
:10247000FFF76AFF03B000BDFCA000105418002055
:1024800001238340002904D0034A1360034A1360E8
:102490007047034A1360FBE780E200E000E100E0E0
:1024A00080E100E001238340014A13607047C04689
:1024B00000E200E0084B10309B688000C358002BFE
:1024C00007D0064A00209B1A2F229A424041C0B2F0
:1024D00070470020FCE7C04600ED00E07C090020CA
:1024E000024B10309B688000C058704700ED00E040
:1024F00070B50D00EFF3108672B60F4A1368002B0B
:10250000FCD0BFF35F8F0D4B10309B6884001B59CC
:102510000B4A934203D09D4201D001F039FB074B97
:102520009B681D51BFF35F8FBFF35F8F0022024B8B
:102530001A6086F3108870BD240100D000ED00E021
:10254000CD010010F0B557464E46DE464546E0B593
:1025500085B0060002911700EFF3108B72B6674A40
:102560001368002BFCD0BFF35F8F0025644B5D57D1
:102570009A46002D00DAA5E06B00624C03935B19CC
:102580009B009846A146C1444B4652469B79103663
:1025900013705D4BB2009B68019299580B1B2F2B57
:1025A00034D95A4B994200D0A5E0039B584A9C4627
:1025B000584B6544AD006353434602336519E41834
:1025C000554B0121043B1B1B1B055B0D13436B800B
:1025D000524BEF71AB80FF23AB71029BAB604B465C
:1025E0000B431900484B019A9B689950BFF35F8FCA
:1025F000BFF35F8F0022414B1A608BF3108805B048
:10260000F0BCBB46B246A946A046F0BD01200A0078
:102610008243D379BB422FD845464E4613004049EA
:102620001B1B5B415943090D3A4B63533A4B02352F
:102630006519043B5B1B1B05354D5B0D2B437380FC
:102640000426B446E0444444131F1B1B4C46A171AE
:1026500002991B05A16049465B0D2B43A380314BBA
:10266000E77101431360BDE75800C01880002018CF
:10267000C679BE422CD902000623D356002BF3DACA
:10268000101D8246BD200002804604267642B446D4
:10269000E14450464E46361A3005400D82465646B5
:1026A0001B48957106439680039A944665441D4ADB
:1026B000AD00641922604246A371029BA280E771BB
:1026C000A3608FE701F064FA002553465D5753E796
:1026D000101D824690884005001584464046D4442B
:1026E000664604302018301AE0260005400D3602F8
:1026F00030438046C9E701F04BFA56E7240100D089
:10270000541D00207C09002000ED00E0CD010010E8
:1027100000E0FFFF00A1FFFFAC09002000BDFFFFAC
:10272000AAAA000001488047F0B5DE4657464E464B
:102730004546E0B50C0083B0EFF3108A72B65A4AF2
:102740001368002BFCD0BFF35F8F102291468144A9
:102750004A46564B96009B689D59554B98469D425C
:1027600005D0A54216D0534FEB1B2F2B14D94F4B3E
:102770009B689D51BFF35F8FBFF35F8F00224A4B71
:102780001A608AF3108803B0F0BCBB46B246A94673
:10279000A046F0BD1D00EAE7012383409B465A4650
:1027A000454B1B681A4000925A46444B1A60BFF3CF
:1027B0005F8FFDF758FD0190002803D0814501D0BF
:1027C00001F0E6F901232A009A4393689C4208D15C
:1027D0005FE04B005B189B00FB189968A14211D089
:1027E0001A00062151560029F3DA009B002B05D070
:1027F0005A46334B1A60304B1A60B8E75A462F4B93
:102800001A60B4E706215956002921DB4A00501806
:1028100080003C188046A0689860E079D871062056
:1028200020569871002824DBA488F81A6405241522
:1028300044440019E0240005400D24022043988000
:102840005218204B9200BF181A781970BA71CCE751
:102850000199002910D1FF3191711B4991801949CB
:102860000A789A71194ADB1B5B415A43120D0A70B0
:10287000BBE7BD200002E2E7154A1649D21A083A22
:102880005002400D01439980134952080A43DA80EF
:10289000ABE70621515613000029B7DA019A002A46
:1028A000EAD14546DBE7C046240100D000ED00E058
:1028B000CD0100107C09002000E100E080E100E093
:1028C00080E200E0541D002000BDFFFFAAAA000026
:1028D000B609002000F0FFFF00F8FFFFF8B5012562
:1028E00004000543FDF7BFFCEFF3108C72B6214ADC
:1028F0001368002BFCD0BFF35F8F1F4E2100B76819
:102900001E4A1F4B891A49414B431B0D59B2830084
:10291000F858A8421CD00623D3568B421CD0122351
:10292000D3568B4222D01E23D3568B4220D02A234B
:10293000D35603208B4210D0124B1A781970A27113
:10294000BFF35F8F00220B4B1A608CF31088F8BD29
:10295000B2680D48D050EFE7002043001B189B00E1
:10296000D218FF239371094B9380E5E70120F4E728
:102970000220F2E7240100D000ED00E07C090020F5
:10298000AAAA0000541D0020CD01001000BDFFFFC9
:10299000054B064A1360064A136053609360D36088
:1029A00013615361936170478080808000E400E090
:1029B00004E400E0D02300B51B061B6801000748B3
:1029C00083B0C018064B002200930523FFF7BCFC20
:1029D000002801DB1F23181A03B000BD4C1D002086
:1029E00018A10010024B9C466144890001607047A9
:1029F0004000003483680B4810B58446614462444B
:102A0000090112019A18591854684B6801209C4218
:102A100001D802D00020C0B210BD12680B689A42E3
:102A2000F9D8F7E7FFFFFF0F0A4B1968EFF31080A3
:102A300072B60A68002AFCD0BFF35F8F1B68BFF331
:102A40005F8F00221A6080F3108840BF00200021B1
:102A50007047C046181D0020F8B557464E464546FB
:102A6000DE46E0B599460CAB1C780DAB1B78060032
:102A700090469A460768002C11D1BC7B002C42D0AE
:102A800065003B682D19033D59194B78BB73002B2A
:102A900000D1FB7300238B704B700B7004E065005A
:102AA0003B682D19033D5919B2682A4B944642469A
:102AB000E3181B0163441A604A465A600A9A9A60F6
:102AC0000B9ADA6000238B704B700B707B7B9B46FC
:102AD000002B2BD022005946B8687B6898473A688B
:102AE000002816D05B4658465B005B445519033BF3
:102AF000A870D118D35C002B00D06B705B460C70B3
:102B00007B73A34513D0F0BCBB46B246A946A04692
:102B1000F8BD5B465B005B44033BD3189C705119C6
:102B2000525D002A00D05A705B460B707C7342469F
:102B30004B46307D00F09EFC051E06D05346002B10
:102B400003D12100306800F0B7FE0E9B002BDAD0D5
:102B50001D70D8E7FFFFFF0FF0B5DE464E46574623
:102B600045460023E0B58DB00A936B4B8200D358E5
:102B70000B90994600239B464B46079300F0A2FB1F
:102B8000079C06000F006268EFF3108572B61368A9
:102B9000002BFCD022000794BFF35F8F2468637B77
:102BA0009946002B67D092685C4B90464B441B01C2
:102BB000984443461A685B6810001900801BB941AD
:102BC00000295FDD0B9800F055FC00230026984695
:102BD00000279A46079C6368BFF35F8F5A461A60C6
:102BE00085F310885346002B08D10028C6D10DB0BC
:102BF000F0BCBB46B246A946A046F0BD0A9B414682
:102C000018024B461843D047089009916268EFF3C9
:102C1000108572B61368002BFCD00794BFF35F8F4A
:102C20000899099A002A48DB114303D0079B1B69C6
:102C3000002B5DD1079B1B68D97B002907D04A0078
:102C4000521819688C4649466244033A51704A4604
:102C5000DA734B46079A013BD168CA5C0132CA5409
:102C60005B46079A13615368BFF35F8F5A461A6039
:102C700085F3108882E700230026984600279A46AD
:102C80000020A7E7002901D100289BD100212000C6
:102C900000F094FD43461E685F689B68079A9A4659
:102CA0004346DB689846D3684B44013B1B780A9344
:102CB0001B020343136100208CE72369002BB9D06A
:102CC00033003C005B1A94411A002300A74219D834
:102CD0009F421BD05946049101210391494602911C
:102CE00041460191514607980091FFF7B5FEB7E7BD
:102CF00000F0E8FA089A099B06000F0092197B4140
:102D00009942E5D901225242D317E3E79642E1D92D
:102D100001225242D317DDE7FC1C0020FFFFFF0F0A
:102D2000F8B557464E464546DE46E0B5404D81462D
:102D30008A466A68EFF3108872B61368002BFCD0DD
:102D4000BFF35F8F2E68B47B002C39D067003368E7
:102D50003F19033FDB195A78B273002A00D1F2738E
:102D6000A968344A8C464946A2181201624411608F
:102D700051465160304991600021D160997059707D
:102D80001970737B9B46002B35D022001900B06868
:102D9000736898473268002820D05B4658465B002D
:102DA0005B44D719033BB870D118D35C002B00D01B
:102DB0007B705B460C7073735C451DD0002626E06B
:102DC0006B68BFF35F8F1C6088F31088012040425E
:102DD000F0BCBB46B246A946A046F8BD5B465B00C8
:102DE0005B44033BD3189C70D119D25D002A00D0FC
:102DF0005A705B460B7074734A465346287D00F048
:102E000039FB061EDAD02100286800F055FDEB687A
:102E10001B19013B19786B68BFF35F8F00221A60A2
:102E200088F310880020002ED2D108022043CFE77B
:102E3000C4090020FFFFFF0F292A001010B5124C13
:102E40006368002B04D00A211048FFF7CBFD10BDAA
:102E500023000F4A1021206800F0CEFB032000F071
:102E600025FA032000F076FB03200A4900F0BCFAA3
:102E7000FFF7EAFA084B9C46032360442375074B8F
:102E800080006060DC60DEE7C4090020181D0020BF
:102E9000F5290010592B001040000034FC1C0020C4
:102EA00000487047C4090020F0B557464E464546D5
:102EB000DE46E0B585B0019310AB1B7806000393A6
:102EC00000239A46984600927268EFF3108972B612
:102ED0001368002BFCD0BFF35F8F3568AC7B002CF0
:102EE00049D067002B683F19033FDB195A78AA7352
:102EF000002A00D1EA73B1684F4A8C4600980199C4
:102F0000A21812016244106051600E9991600F99ED
:102F1000D16042469A705A701A706B7B9B46002BA8
:102F200045D022001900A8686B6898472A680028D5
:102F300030D05B4658465B005B44D719033BB87002
:102F4000D118D35C002B00D07B705B460C706B7388
:102F50005C452DD0F3681B19013B18787368BFF3EB
:102F60005F8F42461A6089F310885346002B2CD19C
:102F70000002204307E07368BFF35F8F1C6089F392
:102F800010880120404205B0F0BCBB46B246A946BD
:102F9000A046F0BD5B465B005B44033BD3189C70CE
:102FA000D119D25D002A00D05A705B460B706C7349
:102FB000307D009A019B00F05DFA82460028C9D05E
:102FC0002100306800F078FCC4E7039B002B30D070
:102FD0000E9B00200F999847030004000D000B433F
:102FE00027D000290DDA0098019902000B00121B6E
:102FF000AB41994213D818D000920193039B9A4693
:1030000062E700F05FF902000B00A4185D41009434
:103010000195A94203D8F1D100998A42EED9012342
:103020005B42DC1700930194E8E700999142E3D9F1
:10303000F5E70020A7E7C046FFFFFF0FF0B504004B
:103040000D0006267642F717C64636196F4100B5C1
:103050008F4213D810D000F035F932003B00121A1D
:103060008B41002B14DC002B37D02900200000F00E
:10307000ABF980BCB846F0BD8642ECD900260027EB
:1030800000F020F932003B00121A8B41002BEADDE0
:1030900030003900FFF744FE0028E6DB00239846A5
:1030A000BC460F4A0F4F7B6A9C4504D8B96A8E42D2
:1030B000DBD99C45D9D11168EFF3108072B60B684B
:1030C000002BFCD0BFF35F8F1368BFF35F8F4146C7
:1030D000196080F3108820BFE5E7002AC5D0D7E744
:1030E000181D00200040054070B5060000F0EAF809
:1030F000FA2204000D00002330000021920003F0AA
:1031000097F9001969418D4205D802D0FFF796FF63
:1031100070BD8442FAD901204042C117F6E7C0468B
:10312000F8B5CE46474680B506000C00FFF7F8FD1F
:1031300000280CDC2D4B0020596A8C4203D89B6A76
:103140000130B34245D3C0BCB946B046F8BD20BF3C
:10315000274D6A68EFF3108772B61368002BFCD016
:10316000BFF35F8F2B68C1B29C465B7B8B4235D02F
:10317000FF2303405A0091466246126899449046E4
:103180004A464244033A9278002A1DD0EA68000A6F
:1031900090464344013B1B78C0B2834221D06B6808
:1031A000BFF35F8F00221A6087F310880F4A002058
:1031B000536A9C42C7D8926A0130B242C3D2E01A25
:1031C000421E9041C0B2BEE72B699842E7D12A6106
:1031D000E5E7601A431E9841C0B2B4E7FF230340FD
:1031E000D4E7604600F068FBD9E7C04600400540E0
:1031F000C4090020F0B5D6464F464646C0B5EFF3A9
:1032000005833F22134018001038EFF3108C72B67C
:10321000204D2A68002AFCD0BFF35F8F01221100E5
:1032200081401D4C884661631C4917000E788A4610
:103230003100C1400F400A4209D1BFF35F8F2F60B8
:103240008CF31088E0BCBA46B146A846F0BD1449DC
:103250008200646A51588C420FD3124BD2584346B5
:103260009E4353461E70BFF35F8F00232B608CF389
:103270001088002AE6D09047E4E70B4A9B0090466E
:1032800043441A681A60BFF35F8F00232B608CF3EE
:103290001088D7E7280100D000400540571D0020C6
:1032A000241D002028160020D03F054010B5010045
:1032B000024A0348FFF726F810BDC04634A10010AB
:1032C000521D0020034B596A0A00986A596A8A42C3
:1032D000FAD170470040054070B5002806DB174A58
:1032E000916A936A5B1A8342FBD370BD0400002588
:1032F000124A536A1900966A536A8B42FAD1300017
:10330000190024184D41AB4202D814D1A64212D95B
:10331000012301246442E5175B4208494A6A9A4244
:10332000FCD3E2D1054A02E0516A9942DDD1916AAB
:10333000A142F9D3D9E72B00EFE7C0460040054092
:103340001F4B70B598420BD84201121A9200101808
:103350001C4AC000916A936A5B1A9842FBD870BD00
:10336000FA2200239200002103F062F804000D000D
:10337000144A536A1900966A536A8B42FAD1300094
:10338000190024184D41AB4213D901230124644292
:10339000E5175B420B494A6A9342FCD89A42DED158
:1033A000084A02E0516A8B42D9D1916A8C42F9D81D
:1033B000D5E7AB4201D02B00ECE7A642E5D8FAE70F
:1033C0009BC4200000400540064A536A9942FCD83D
:1033D00007D1044B02E05A6A914202D19A6A8242B2
:1033E000F9D370470040054070B504000D00EFF3BD
:1033F000108672B61A4A1368002BFCD0BFF35F8F99
:10340000002D1BD02000FFF76BF8164981420AD02F
:103410002000FFF76DF801212000FFF731F80123AC
:10342000A340114A1360114BA400E550BFF35F8F16
:1034300000220B4B1A6086F3108870BD0B4BA20064
:10344000D5500122A2400A4920000B7893430B700B
:103450000449FFF769F900212000FFF711F8E5E7BB
:10346000280100D0F53100103860054028160020F2
:10347000571D0020F0B54F46D6464646C0B507005A
:103480002F4C616A0D00A66A616AA942FAD18B428B
:1034900008D805D00120E0BCBA46B146A846F0BD28
:1034A000B242F7D9EFF3108A72B6264801680029B4
:1034B000FCD0BFF35F8F0125BD402349204C8846D7
:1034C000097889462943C9B28C464146604608704E
:1034D000391D1E48890065630A51B9000B50216AE5
:1034E0000020294219D0616A0800A66A616A8142F7
:1034F000FAD18B4219D801D1B24216D8CC451DD091
:103500000F4B1F201D625D6301230740BB40104A23
:103510001E38136043464A461A70BFF35F8F00227D
:10352000084B1A608AF31088B5E70020BFF35F8F5D
:103530000022044B1A608AF31088ACE70120ECE704
:1035400000400540280100D0571D0020241D002008
:1035500080E200E0EFF3108C72B60A490B68002B92
:10356000FCD0BFF35F8F01238340074A07481362F3
:1035700002789A430270BFF35F8F00230B608CF3D5
:1035800010887047280100D000400540571D0020DA
:1035900070B5050014001600002915D00C00002A93
:1035A00012D080686B689847296800280ED0730095
:1035B0009B196200033B1219CB18033A9C708818C0
:1035C0008A5C002A15D10670200070BD63001B19AB
:1035D0007200033B9219CB18033A9E7088188A5CDC
:1035E000002A02D104703400EEE75A7004703400EF
:1035F000EAE75A700670E7E730B583600023CCB283
:1036000043730133047342608373C4730D00006815
:10361000012C06D9421C0133DBB2137003329C42E9
:10362000F9D1FF2129404B005918002340180338D5
:10363000437030BDF8B5CE46474606000C0080B555
:10364000002907D04D0003686D18033D5A195778BB
:10365000002F04D12000C0BCB946B046F8BD7900A7
:10366000C91903398846434459788946002159705D
:10367000517073683A0021008068984733680028C9
:1036800014D042469A18947059195B5D002B00D0F3
:1036900053700F70270049463000FFF7CBFF390009
:1036A00002003000FFF774FF0400D3E742464146B2
:1036B0005D19AF709A185B5C002B00D06B701470B2
:1036C000E9E7C046F0B557464546DE464E46E0B50A
:1036D0000D006B0001685B19DF1E0400C85D83B03C
:1036E0000192CA1900284CD043001B18033BCB1889
:1036F0005E78B446002E16D1019E002E3ED0E67BA9
:10370000002E04D073009B19CB18033B5D70E5734A
:1037100000282FD10023537003B0F0BCBB46B24643
:10372000A946A046F0BD72006244033A89184A785F
:10373000904600224A7091465A70010032002000E3
:10374000FFF726FF43468246002B07D05B00216827
:103750004344033BCB185A78002A16D142465146BF
:103760002000FFF715FF2168019BCA19002BC6D165
:103770000028CFD043001B18033BCB1800219970C1
:10378000C8E7019B002BBAD1C4E75000801803386A
:1037900009184878834648464870587041462000CA
:1037A000FFF7F6FE594680462000FFF743FF4146EB
:1037B00002002000FFF7ECFE8046CFE7F0B5574649
:1037C0004546DE464E46E0B583B00191457B040098
:1037D0006B0000685B19DF1EC15DC21900294ED065
:1037E0004B005B18033BC3185E78B446002E18D11B
:1037F000019E002E40D0E67B002E04D073009B1962
:10380000C318033B5D70E573002931D10023280004
:103810005370617303B0F0BCBB46B246A946A046E4
:10382000F0BD72006244033A80184278904600224C
:10383000427091465A7020003200FFF7A9FE4346BD
:103840008246002B07D05B0021684344033BCB1822
:103850005A78002A17D1424651462000FFF798FEB9
:10386000019B01002068C219002BC4D10029CDD0D2
:103870004B005B18033BC31800209870C6E7019B00
:10388000002BB8D1C2E750008018033809184878D7
:10389000834648464870587041462000FFF778FE3E
:1038A000594680462000FFF7C5FE41460200200031
:1038B000FFF76EFE8046CEE770B5040000292CD0DD
:1038C000437B8B422ED005684800401803382818E7
:1038D0008278002A21D053009B18033BEA5CEE1843
:1038E0008A4202D11BE0002A08D053009B18033BF8
:1038F000EB185A788A42F6D142785A700023012296
:10390000837043702000FFF7DDFE617B0200200022
:10391000FFF73EFE6073012000E0002070BD437899
:103920003370EBE701221900FFF7CCFE6073012032
:10393000F4E7C04610B50400FEF786FD0100200044
:10394000FFF750F8FF232371BFF35F8F10BDC04610
:1039500010B50400FEF778FD01002000FFF742F8E3
:10396000FF23A380BFF35F8F10BDC04610B50400D6
:103970000120FEF775FD044B9C46604480002060EA
:10398000BFF35F8F10BDC04640000034F8B504009F
:1039900006200D0000F060FA002844D02A4B2B4985
:1039A000E21853425A418023DB039C469205284B80
:1039B00062441A60274B1A6010008B689843FBD151
:1039C000214B8021E3185A425341234A5B004900AE
:1039D0009952062000F040FA2900C00001F078FE5C
:1039E000C30921D140270121260080256162A362FD
:1039F00000232C36AD0135432B60062000F02CFA55
:103A00003900800001F064FE6023E26A53406E22B8
:103A10001A4080235B0133431A60104B2363102349
:103A20002B600D3BA364F8BD0D4A934203D90023DC
:103A30000C4F0D49D8E77F221040013040089F010C
:103A400019003F180300CFE70080FCBF00C0004012
:103A500000E0004000F00040341D002001030000A1
:103A6000FEFF0000C0FF3F00FFFF00002C4B2D4A6F
:103A700070B51A602C4A2D4B2D491A6014008B68C2
:103A80009C43FBD12B4D2C4EB54208D2013E761BF8
:103A9000B60808CD984723000134B342F9D100F0AD
:103AA0007DF8264A214B1A60214A9368DB43DB01EB
:103AB000DD09002BF9D14022214B224C224E9A677E
:103AC0005A671A67DA66B44208D223682000002BCE
:103AD00020D00834FFF73CFFB442F6D31B4E1C4CF9
:103AE000C022A168300002F0FFFDA660FEF79EFC38
:103AF000FEF74EFFFFF7A2F9164C174EB44208D25C
:103B0000013E361BB60808CC98472B0001359E4273
:103B1000F9D170BD0834FFF70DFFB442D5D3DDE70E
:103B200000E00040BFCDFBFEFE7F3C0000F0004007
:103B300000C00040880E0020980E0020FFFFFF010B
:103B400000F00140800E0020880E002000000020C0
:103B500000ED00E0980E0020A00E002000BEFDE762
:103B60000FB400B5084883B002F026FF049B002B79
:103B700007D005A91800019101F02AFD034802F0C1
:103B80001BFF00BEFDE7C04658A10010689B001057
:103B900010B50148FFF7E4FF68A1001030B50C2014
:103BA00083B000F0B7F9FEF739FC00280ED0944B33
:103BB000944A1A605A609A60DA601A615A619A618E
:103BC000DA611A62904A5A6203B030BD8F4CA06726
:103BD00000F0F4F901228E4B1A60636C012BFCD1CA
:103BE00003228C4B1A60894A936B012BFCD1013361
:103BF0000121894A89480093043300F033F90523F1
:103C0000874A00930121874800F02CF9864B5A68B7
:103C1000FF2A02D8802252005A608022784C7D4BC5
:103C200021691201804D1A60002905D0606901F0F8
:103C30004FFD01300138FDD1E0217B4B02201A6895
:103C40001140802252012A43116019684840032123
:103C50000140116004219A681142FCD08022802129
:103C600092012A4309011160802252005A606F4B71
:103C700023616F4B5968FF2900D85A600321644AB9
:103C80006B4B116002399A681142FCD0E0201A682F
:103C90001040802252011A431060186848400321E6
:103CA00001400220116062498A681042FCD08022E3
:103CB00092011343802212011A6080225D4B520050
:103CC0004A6063615C4B5968FF2900D85A608022C2
:103CD0005A4BE1691201584D1A60002905D06069FC
:103CE00001F0F6FC01300138FDD1E02252490B68A9
:103CF0001A4080235B012B431A60802380229B01A2
:103D00002B4312011A6080223E4B52004A60E3614D
:103D10004B4B5968FF2900D85A608022494B216AD1
:103D20001201474D1A60002905D0606901F0D0FCEE
:103D300001300138FDD1E02241490B681A4080234F
:103D40005B012B431A60802380229B012B431201CD
:103D50001A60802380225B004B602A4BD2022362D0
:103D6000394B5968914200D25A608022374B616AC0
:103D70001201354D1A60002905D0606901F0A8FCD8
:103D800001300138FDD1E0222F490B681A40802311
:103D90005B012B431A60802380229B012B4312017D
:103DA0001A608023DB024B60174B6362284B5A6812
:103DB000FF2A02D8802252005A608022254BA16936
:103DC0001201234D1A60002905D0606901F080FCC2
:103DD00001300138FDD1E0221D490B681A408023D3
:103DE0005B012B431A60802380229B012B4312012D
:103DF0001A6080235B004B600E4BA361E4E6C04673
:103E000058180020006CDC021BB700000080004046
:103E10003CB0004030B00040002F685900800240A4
:103E2000008C864700C0024030800040001BB70075
:103E30003C800040405973075480004054B000401B
:103E40006080004060B000406C8000406CB000407A
:103E50004880004048B00040014B8000C058704787
:103E600058180020F0B5C646040000B50C20904656
:103E70001F000E0001F02CFC4101091A8D01691A86
:103E8000C90009188901404601F022FC069B3F0445
:103E90001A0323681743002B22DB1A4B1A4DE21832
:103EA00053425A4180235B019C461203174B6244E4
:103EB0001A60174B1A601100AB689943FBD1C022FE
:103EC000231D92011A4321232660A06013602368FA
:103ED000002BFCDA0823E760136080BCB846F0BD15
:103EE0003F2322681340B342D7D1A3681B051B0DA3
:103EF0008342D2D1EE22E368D2021340BB42CCD13E
:103F0000EBE7C0460040FDBF00C0004000E00040BD
:103F100000F000408023024A9B000343D3627047B5
:103F20000080054010B5140080221B4BD2051A609A
:103F300000281AD00123194A1843194BDA61194A8B
:103F400042401A62596298628022134BD2051A606D
:103F50001549164A1160E022D2041A60002C07D1DC
:103F60008022134B12061A6010BD0D4BD861EBE78F
:103F700063011B1B9A008023121912015B049A42F1
:103F800000D30C4A0C4B1A60054B5A608022084B38
:103F9000D2051A60E8E7C04600B00540D3C007B0BC
:103FA000008005402D3FF84FFCFF01000820014034
:103FB00000A00540FFFFFF00F41C0020AA23064AD2
:103FC0001B0113602F230549D360054B196053680B
:103FD000002BFCDA7047C0460040024000B0FA00F7
:103FE000006002409A4200D2885470477047C04631
:103FF000F8B557464E464546DE46E0B599460A9B1B
:1040000007009A460D9B8846934615000B9E9B071A
:1040100010D10C9B9E420DD29D1B14000E005D44DE
:1040200022004B46013431002020B847A542F7D189
:10403000B0460B9E002E27D0444675195346AA1B46
:10404000013E985D21004B46B847002EF6D1230073
:104050002C0098460D9B9B070FD55B46E51A0C9BE1
:10406000AB420AD94646984622004B4631002020F2
:104070000135B8470134A845F6D82000F0BCBB464E
:10408000B246A946A046F8BD2C00E3E7F0B54F467E
:104090004646D646C0B584B098460EAB1B78129FF4
:1040A000994694460D9C109B119EBA0725D4002E6C
:1040B0004BD19C4200D3BFE001223A4092461F2CD4
:1040C00000D9B8E00C9A551E302201E0202C03D014
:1040D00001342A55A342F9D85246002A0DD0A642EF
:1040E0000BD9202C44D00C9A551E302201E0202CF4
:1040F0003ED001342A55B442F9D1FA064DD57A059D
:104100003FD4002C39D10F9B102B00D179E00F9BAD
:10411000022B00D18AE030230C9A012413704B4605
:10412000002B3FD02D230C9A135501340C9B624673
:1041300000930397434602960194FFF759FF04B09A
:10414000E0BCBA46B146A846F0BD012215003D408C
:10415000AA463A422FD04A46002A02D10C323A42AD
:1041600000D0013E9C42BAD21F2CABD9202E27D9B9
:104170002024FA06DAD57A0503D4A3422DD0A6422C
:104180002BD00F9B102B32D0022B20D0202CCDD047
:1041900030220C9B1B191A700134202CC6D04B46C0
:1041A000002BBFD17B070DD43B07BFD520230C9A32
:1041B00013550134BAE79C429FD21F2C00D881E7E7
:1041C00020249AE72B230C9A13550134AEE7202CB8
:1041D000ACD00C9B1B1901343AE0631E012C92D029
:1041E0000F9A102A2AD0022A2FD01C00D0E7BB0633
:1041F0000ED4202C9AD00C9B1A19013478231370FA
:10420000C4E7BB060DD478230C9A01241370BFE7D2
:10421000202C00D18AE758220C9B1B191A700134FC
:10422000B4E758230C9A01241370B1E70C9A603359
:1042300001241370ACE7202400265EE7023CBA0696
:10424000E9D40C9A12191C00D8E70C9A92465344F0
:1042500062221A709AE7C04610B5002800D110BD3E
:1042600002F05AFBFBE7C0460B0010B5002802D055
:1042700049681B68984710BDF0B5DE4657464E4664
:104280004546E0B59BB09B46249B89469846259BB6
:104290000B900C924046424619009A4601F0E9FC08
:1042A000002800D0D8E0012240465146774B5242C8
:1042B00001F0DAFC002800D0CEE001224046514651
:1042C000734B524201F0BAFC002800D0C4E0002237
:1042D00000234046514601F0B1FC002800D0B9E16E
:1042E000424653460A9209938023289ADB001A40DB
:1042F0000E92289A1A4201D1062326930A9A099B04
:104300001600134300D0C7E0289B002500261B059C
:1043100000D49BE100230D93269A0D9B9A4200DC6A
:104320009FE1D01A431E26938023289ADB001A436C
:104330000023002728920D93279B0024BB4200D91D
:10434000DC1B0223289A1A400E92289A134203D0AB
:104350007B427B415B421C400D9B002B07D00A989F
:1043600009992A00330001F008FC0A900991002203
:1043700000234046514601F061FC002805D0802012
:1043800000068446099961440991289A414B0B9D86
:1043900013400493269B0A9A0293099B039400926C
:1043A000019349465B4628000C9A00F08BF9040003
:1043B000002F62D0289B220098061F23C017984325
:1043C000631C984649465B466530A8470D9B00250F
:1043D000DA179C18DB0F9A465440013F01E0202D6C
:1043E00013D00AAA94461F23200063440A210135F2
:1043F0005E1901F06DF93031317020000A2101F0B1
:1044000067F926000400092EE9D805230693002346
:1044100004930A330393534605970B9F029312AB01
:10442000009342465B46494638000195FFF72EFE51
:104430000E9B0400002B20D00C9BC51A279BAB427F
:104440001BD91E0022005B46494620200135B84793
:104450000134AE42F6D810E0289B42460493279BD5
:1044600049460393269B0B9802935346009201936F
:104470005B460C9A00F026F9040020001BB0F0BC4B
:10448000BB46B246A946A046F0BDC046FFFFEF7F3F
:10449000FFFFEFFFFFF7FFFF734B099F9C4678007C
:1044A000400D604401F0F8FB704A714B01F083FB52
:1044B000704A714B01F058FB3B03704A1B0B1A43C7
:1044C00004000D00300011006D4B002201F043FB91
:1044D0006C4A6D4B01F06FFB02000B0020002900BD
:1044E00001F042FB01F0F0FB0D9001F0D5FB674AB3
:1044F000674B04000D0001F05EFB0022654B01F0EC
:1045000033FB01F0E1FB644A0600644B2000290004
:1045100001F051FB040030000D000F9601F0BCFBD0
:104520005F4A604B01F047FB02000B0020002900AE
:1045300001F011FB02000B0006000F0001F03BFB35
:10454000320004000D003B003000390001F00CFB8C
:10455000002210901191544B2000290001F00DFB16
:104560000022524B01F000FB02000B00200029004A
:1045700001F003FB00224E4B01F0F6FA02000B00A3
:104580002000290001F0F9FA0D008021040032001A
:104590003B000020C90501F0DEFA02000B002000FC
:1045A000290001F0E1FA02000B001098119901F0C6
:1045B000E4FA0022314B01F0D7FA3E4B0F9C9C46A7
:1045C00064440022230501F0F6FA05000E00020003
:1045D0000B000A98099901F031FB00280AD00D9BC5
:1045E0002800013B31000D930022304B01F0C5FA49
:1045F00005000E00C6270D992B0063318F42BF4185
:1046000028997F420437090500D495E6334300D149
:1046100082E6099C284A2100284B0A9801F01CFBDD
:10462000002808D000222100254B0A9801F006FB43
:10463000002800D070E6269B002B00D17CE60E9B64
:104640005A1E9341269AD31A269375E6002304270F
:104650000D9371E643460A9380231B065344099346
:1046600042E6002326935FE601FCFFFFFB799F50A3
:104670001344D33FB3C8608B288AC63F0000F03F85
:104680000000F83F61436F63A787D23F71A37909A8
:104690004F930A400000E03F1655B5BBB16B024096
:1046A000EF39FAFE422EE63F00002C400000244085
:1046B00000001840FF0300002D431CEBE2361A3FB8
:1046C00080842E41F0B54E46DE4657464546E0B55D
:1046D00097B09946209E219F229B8346984607913A
:1046E0000C923B0032003000390001F0C2FA002881
:1046F00000D0A9E1012230003900CA4B524201F03A
:104700009DFA002800D0E1E0012230003900C64BBC
:10471000524201F0A9FA002800D0B7E00022300090
:104720003900C24B01F0A0FA002800D099E0002225
:1047300030003900BE4B01F081FA002800D090E033
:10474000002200233000390001F078FA002800D060
:10475000B1E000230D93249B5B0501D4062398460A
:1047600008AB9C461722002430234146624404E0F3
:10477000013413550139202C01D00929F8D8884675
:104780003000390001F0A0FA4346DA00A94B0500D9
:104790009B181A685B680892099301F07DFA020081
:1047A0000B003000390001F0D6F9089A099B01F09E
:1047B00002FA0A900B9101F0ABFA824601F068FA16
:1047C00002000B000A980B9901F0C5F900229A4BE0
:1047D0000A900B9101F048FA002800D1C0E00123B3
:1047E0009C46E244504601F053FA02000B00089840
:1047F000099901F029FA002802D000239A460135D0
:104800004346002B6AD008AB17269C4608956644A1
:10481000554614E001235B4243440A2128009A468E
:1048200000F056FF013430313719397028000A2161
:1048300000F04EFF092D00D8D0E0D0460500202C16
:10484000E8D10EAB98460323249A1340012B00D1E4
:1048500096E02023249A01930392239A43460292DE
:104860001EE0249B58460493239B009601970393D4
:1048700043460C9A029307994B46FFF7FDFC17B08D
:10488000F0BCBB46B246A946A046F0BD249B5B07E0
:104890000ED40322694B249901920391239902912A
:1048A000009358464B460C9A0799FFF7A1FBE6E7A1
:1048B0000422634BEFE73B0032000020002101F0AF
:1048C0004AF9012306000F000D9344E7249B03934C
:1048D000239B0293042301935A4BE1E7280001F044
:1048E000DBF902000B003000390001F034F9524BC3
:1048F000002206000F0001F0A1F90EAB9846002837
:104900000AD10022300039004B4B01F0ADF90028EC
:1049100002D1EB0700D50135202C94D008AA94468B
:104920001723280063440A2101341E1900F0A8FE51
:104930003031280031700A2100F0A2FE051EEBD1B3
:104940000323249A1340012B1BD0202C00D180E795
:104950000D9B002B35D02D224146631C0A5579E76B
:1049600000220A980B99344B01F068F9002800D016
:1049700046E75346002B51D101239C46E2443FE7D2
:104980002024239B002BE0D00D9B002B03D1249AE5
:104990000C33134202D0239B013B2393239BA3425E
:1049A000D3D908AB9C46172230236244202C00D177
:1049B0004FE72399013413558C42C6D0202CF8D1EF
:1049C00047E7249B5B0724D4249A2300120700D4D2
:1049D00040E72022414601330A553BE75746089DF0
:1049E000202C00D12DE7220030214046002F09D095
:1049F0000132B154202A00D123E7D3431B191B18DD
:104A0000002BF5D10EAB98462E234146541C8B54F7
:104A100082E72B224146631C0A551BE7DB0700D4C3
:104A2000EEE6A9E7FFFFEFFFFFFFEF7F65CDCD418A
:104A300065CDCDC170A300100000E03F74A100104F
:104A400078A1001084A10010249B0393239B029360
:104A500003230193004B23E780A10010F0B5DE464D
:104A60004E4657464546E0B59FB01C00289B9146F0
:104A70000993C94AC94B8B4608901A60002900D196
:104A800018E2002320789A46002800D11AE2260076
:104A90001D005C460AE02A006F1C4B46089D210061
:104AA000A8473D0001363078002870D02528F2D183
:104AB00010239B46083B9A46043B9846023B002144
:104AC0009C46721C107816000300203BDBB2102BB2
:104AD00003D8B34F9B00FB589F460300303B092B84
:104AE00032D900230A932A2868D0002398462E281A
:104AF0003ED00300683BDBB2122B1CD8A94A9B00B6
:104B0000D3589F46012301321943DBE76346013244
:104B10001943D7E7434601321943D3E75B460132D5
:104B20001943CFE7534601321943CBE780235B009B
:104B30007078194301360300253BDBB2532BAAD80A
:104B4000994A9B00D3589F4600270300B800C0191C
:104B500001364000C018337830381A00303A070068
:104B6000092AF3D90A901800002398462E28C0D1AC
:104B700080237078DB0019430300303B721C092B43
:104B800000D8A1E12A2800D1B2E11600B1E7A3467E
:104B9000AA462C00D14503D801235B424B449A46D8
:104BA0004B46524659460020089DA84720001FB09A
:104BB000F0BCBB46B246A946A046F0BD099B40CB1F
:104BC0000A96002E03DB50780993561C8DE728388F
:104BD000014370420A9009935078561C85E7782863
:104BE00000D1DFE1582800D14CE26F2800D14FE31B
:104BF000622801D100F030FC10230A009A430B9286
:104C0000692801D000F0A9FC0A230C934B0500D5BC
:104C1000D0E10B9A802311009B0019408B461A4269
:104C200000D0A1E2802311005B0019408A461A429D
:104C300000D0B6E313005B0600D5EDE2130009993E
:104C40001B0601D400F076FC08C91BB2D8171A184D
:104C5000424092B209919346DA0F1292002B09D189
:104C6000802310220B99DB000B4091430B91002B0A
:104C700000D0E4E20B9A6123920600D541230EA9ED
:104C80001F228C46DBB262440A3B5F461395A34663
:104C900055460C9CB2460D9316000AE03033DBB249
:104CA00001357355A74200D2EDE2202D00D1EAE292
:104CB00007002100380000F00BFDCBB20929EDD927
:104CC0000D9A94466344DBB2EAE780239B00707838
:104CD000194301362FE77078682800D1CDE1802391
:104CE0000136194327E770786C2800D1BFE1802393
:104CF0005B00194301361EE7462800D19BE10722DD
:104D0000099B0491073393430A9A19000392424680
:104D100002920CC908980092019309912A004B460F
:104D20002100FFF7CFFC01360500BCE62A006F1C0E
:104D30004B46089D21002520A84701363D00B2E6DC
:104D40008B0700D4ADE1099B2A009A466B1C98465C
:104D5000534601CB21009A46089F4B46C0B2B84744
:104D60000A9B9C466544012B00D886E2089B474677
:104D7000B04626004C4699463A00230001373100E0
:104D80002020C847AF42F7D1A146534634004646DB
:104D90000993013687E6C0465D4A0010F01C0020EA
:104DA0008CA10010D0A100101CA20010099B04CB04
:104DB0009B4643460992002B00D1C6E013789C46DF
:104DC000002B00D1BDE34346013B099A0133D018C3
:104DD0000A9F130001E0834203D05A780133002A6E
:104DE000F9D1099A0A979B1A0B9380230A00DB00DA
:104DF0001A400C92194204D00B9B434501D94346FB
:104E00000B9302231A000A400D920B4200D187E156
:104E10006046002800D168E10C9B002B00D10DE119
:104E2000A844C246099B57465B1B9846089BB2465E
:104E30002A0026004C46994609E023003100551C03
:104E4000C8474346585D002800D126E12A00974212
:104E5000F3D1A1463D00340056460D9B002B00D0F7
:104E600043E15B46013609931DE6099B1A0008CA17
:104E70009246002B48D0212211438B460EA884462F
:104E80001F216144099500220F27A4460D0002E06E
:104E9000202A0CD00B003C001C4020003730092C8D
:104EA00000D807380132A85419090F2BF0D86446EE
:104EB000099D32E0DC4B2078089300239A460028B5
:104EC00000D0E4E5002465E6434606000A9F98000A
:104ED000C0180132400080191678030030003038C5
:104EE000303B0928F3D93000984616000A9700E6AF
:104EF000099B023604CB9046D2434046D21710405D
:104F0000804609933078F4E510220800904311326E
:104F10001043834600224905B0D55B46069308231B
:104F2000059343460493102303930023029316AB87
:104F3000019200932A004B4621000898FFF7A6F83B
:104F40005346050001360993ADE513789C46002BC6
:104F500000D1F7E202235B4237E7202302009A43A5
:104F6000472A04D180231B01194302239843452873
:104F700001D1202319430722099B0491073393434E
:104F80000A9A19000392424602920CC908980092AC
:104F9000019309912A004B462100FFF76DF9013674
:104FA000050080E510230C930C230A009A430B9212
:104FB0004B0503D501230B9A9A430B92692800D124
:104FC00027E6642800D124E60B9A802311009B0079
:104FD00019408B461A4200D066E1802311005B0025
:104FE00019408A461A4200D039E213005B0600D508
:104FF0003CE113001B0600D4A6E2099B04CB12047B
:10500000120C934609935B46002B00D09AE10B9A51
:105010001033110099430B91520500D492E1002303
:105020009A460B9B06930A9B0593434604930C9B5D
:10503000039300230CE12023194360E6099B0A9A9D
:105040005B1B98464B4691461F00B2462600089CC3
:105050002A003B003100A04743460135585D002837
:10506000F6D14A463400B94656460A92F5E6C023C0
:105070009B00B078194302365DE5C023B078194330
:10508000023658E50C230A009A4314331A43103BA6
:105090000B920C934B058DD496E7A14634005646EF
:1050A000DBE60A9A012A00D853E26B1E9F18089B80
:1050B000B04626004C4699462A00230001353100AF
:1050C0002020C847BD42F7D1A14634004646099B7F
:1050D0003A0001CB210098467D1C4B46089FC0B288
:1050E000B847434601360993DDE40B9B0A9AA8466C
:1050F0009A4200D8B5E694466544ED1A089B4746A7
:10510000B04626004C4699463A002300013731004C
:105110002020C847AF42F7D1A14634004646A0E65A
:105120000B9A0A99531C914200D814E24B199B1A0E
:105130001F00089BB24626004C4699462A002300D1
:10514000013531002020C847BD42F7D10A9BA14656
:1051500001330B93099B34001B7856469C466046EE
:10516000002800D058E67CE60722099B07339343CA
:10517000013294469C4462465F6809921A68FB17A4
:105180001093119310981199030053400E930B0044
:105190007B400F9394460E9A0F9B121A8B410E92EE
:1051A0000F93FB0F6246129300233A439B463DD078
:1051B0000B9A6123920600D541230022DBB20EA98F
:1051C0000A3B8C4692460D9343461F326244139528
:1051D000159655460E9E0F9FA24690460C9C149322
:1051E0000CE03032D2B2434601355A55BB4500D1AE
:1051F0008AE1202D00D18AE106000F002200002361
:105200003000390000F0A6FAD2B2092AE9D90D9B84
:105210009C466244D2B2E6E7FF23099904C91340D1
:105220001A00099117E5C046ED3F00100B9A1033A4
:10523000110099430B915205BAD500239A460B9B56
:1052400006930A9B0593434604930C9B0393129B7E
:1052500002935346019316AB2A00009321004B465C
:105260000898FEF713FF013605001CE4FF22099B96
:1052700002CB11408B460993C5E653464546099338
:105280000136FFF710FC56465C46AA46139DD6E74A
:1052900008230C930B910B99642800D084E60B9B98
:1052A0005B0500D586E6B4E40722099B07339343E8
:1052B000013294469C44624609921A685B68100069
:1052C0009B4613005A46134307D10B9A1033110023
:1052D00099430B91520500D5A1E60B9A61239206E2
:1052E00000D541230022DBB20EA90A3B8C46924630
:1052F0000D9343461F3262445F461295A3465546BE
:105300000400B24690460C9E13930DE03032D2B2A8
:10531000434601355A550023BB4200D100E1202D00
:1053200000D100E104000F0032000023200039000A
:1053300000F010FAD2B2092AE8D90D9B9C466244CB
:10534000D2B2E5E70B9A6123920600D54123DBB286
:105350000EA90A3B1F228C460D93230062445C4633
:105360001295170055469B46B2460C9E08E0303316
:10537000DBB201357B55B4420ED3202D0CD0040096
:105380003100200000F0A4F9CBB20929EFD90D9A21
:1053900094466344DBB2ECE756465C46AA46129D4F
:1053A0003FE6099B1A0008CAD91713925A184A40B7
:1053B0009246DA0F1292002B08D1802310220B990B
:1053C000DB000B4091430B91002B2BD10B9A6123F7
:1053D000920600D541230EAA1F279446DBB20A3B52
:1053E0000D9567445D460993A3465446B2460C9E0C
:1053F00008E03033DBB201357B55B4420ED3202DAB
:105400000CD004003100200000F062F9CBB2092971
:10541000EFD9099A94466344DBB2ECE756465C4602
:10542000AB460D9D0B9B2A0006930A9B210005931A
:10543000434604930C9B08980393129B01360293F6
:105440005B46019316AB00934B46FEF71FFE139B82
:1054500005000993FFF727FB02230C931AE7099B2A
:1054600004CB92461293002A08D1802310220B9974
:10547000DB000B4091430B91002B2BD10B9A612346
:10548000920600D541230EAA1F279446DBB20A3BA1
:105490000D9567445D460993A3465446B2460C9E5B
:1054A00008E03033DBB201357B55B4420ED3202DFA
:1054B0000CD004003100200000F00AF9CBB2092919
:1054C000EFD9099A94466344DBB2ECE756465C4652
:1054D000AB460D9D0B9B2A0006930A9B210005936A
:1054E000434604930C9B08980393002302935B4666
:1054F000019316AB00934B46FEF7C8FD129B0500C7
:1055000009930136FFF7CFFAB44200D871E6149B35
:1055100054460E960F97AA469846159E139D8EE602
:10552000A64200D8FBE6139B56469846AA465C4620
:10553000129D76E508C9D8171A1842400991FFF75D
:105540008AFB00230B9350E4099B04CB93460993F9
:1055500059E52F00BBE50B9301E6063B0C939AE659
:105560000EB4012210B585B007AC08CC0100009440
:10557000524204480394FFF771FA05B010BC08BC0E
:1055800003B01847E53F00100CB410B584B006AC6A
:1055900008CC0A000094010004480394FFF75EFA67
:1055A00004B010BC08BC02B01847C046E53F00106C
:1055B00000B585B0039101210290009303481300C8
:1055C0004A4202A9FFF74AFA05B000BD694200103D
:1055D00010B5094A0300146884B0002C08D00122D9
:1055E00000910648524203A9A047012004B010BD13
:1055F00001F0E2F90020F9E7F01C00205942001008
:1056000001480421014B1847F00900203D560010C5
:10561000014B9B6818470000F0090020142310B5C7
:105620000100188804331B88984710BD162310B555
:105630000100188802331B88984710BDF8B547460B
:10564000CE4680B50F1E19D01423994604330400AA
:105650000025012698464B461888434621681B883A
:10566000984701C4431E9841013540420640AF426D
:10567000F1D13000C0BCB946B046F8BD0126F8E70C
:10568000124A936F9B0815D29066D166002905D007
:10569000FFE7FFE7FFE7516F106F704704B5802108
:1056A0000906C2175140002800D0C84304F028FA68
:1056B000002104BDF0B5146E556E576F166FFFF7DD
:1056C000E3FF1466556657671667F0BD000000D00B
:1056D000114A936F9B0813D210665166002905D0BA
:1056E000FFE7FFE7FFE7516F106F704704B5002831
:1056F00001D00020C04304F003FA002104BDC046DD
:10570000F0B5146E556E576F166FFFF7E5FF146610
:10571000556657671667F0BD000000D094464E4AA4
:10572000926F9208624601D230E0C046F0B54A4E10
:10573000B56F6D08FCD3346E756E776F366F00F001
:1057400025F89446444A14665566576716676246BC
:10575000F0BDC0469446404A926F9208624601D21C
:1057600058E0C046F0B53C4EB56F6D08FCD3346EC2
:10577000756E776F366F00F04DF89446364A1466B2
:105780005566576716676246F0BDC046002B24DB9E
:1057900011D000293EDA00B5C943404200D10131A1
:1057A00000F038F8C943404200D10131DB43524296
:1057B00000D1013300BD002AEBD1002801D100291E
:1057C00005D00020C90FC90701D1C043410800B569
:1057D00004F08EF90022002300BD00B500290ADB89
:1057E000DB43524200D1013300F014F8C943404278
:1057F00000D1013100BDC943404200D10131DB433A
:10580000524200D1013300F005F8DB43524200D18F
:10581000013300BD002923D1002B18D1002A0CD060
:10582000BC460D4F38667A6600210023FFE7FFE78C
:10583000FFE77A6F386F67467047002801D0074846
:10584000010000B504F054F90022002300BD02005D
:105850000B00002000217047000000D0FFFFFFFF79
:10586000002B00D0BFE0130C28D1002AE7D080B471
:10587000114F39667A66FFE7FFE730B4040C7B6F9F
:10588000396F1B0423433B667A66FFE7FFE7FFE7B8
:10589000C04684B27B6F3D6F1B0423433B667A6630
:1058A000FFE7FFE7C04600232C042D0C7A6F386F0A
:1058B00000196941B0BC7047000000D0F0B59446B3
:1058C0000025140E01D112020835140F01D1120166
:1058D0000435940F01D192000235D40F01D152004A
:1058E0000135D40B0134254F7C66254C3C660E0CEB
:1058F00093B2FFE7FFE7FFE73C6F6643360C7703A1
:10590000BE467343DF0B5B04C01AB941130C7343EB
:10591000DB18C91ACE086643360CB64493B27343FB
:105920001F0F1B01C01AB941130C73431F0B1B053A
:10593000C01AB941860D8F023E436643360C092DCD
:1059400024DB520A7243801A7703460A6643360CF8
:1059500016235B1BDE40DF40BF1964466643821B93
:105960007046043506330100D940A840C01900D361
:105970000131A24206D20023F0BD0000000000D099
:10598000FFFFFFFF121B0130F3D3F1E709277F1B55
:10599000FE406446A2B27243801A00D20139220C42
:1059A0007243130C1204821A99410B00704604359D
:1059B00013370100F940A840801900D30131002BB2
:1059C00002D1A2420AD2F0BD013000D30131121B34
:1059D000FAD2013BF8D1A24200D2F0BD013000D38F
:1059E0000131121BF7E7F0B51C0C00D080E00CB4BD
:1059F00000251C0A04D11B02160E3343120208357F
:105A00001C0B04D11B01160F3343120104359C0BF0
:105A100004D19B00960F334392000235DC0B02D178
:105A200092185B4101351C00971864410134464FC0
:105A30007C66464C3C660E0CFFE7FFE7FFE7C0467E
:105A40003C6F6643360C7703BE4697B27743C01B64
:105A500000D20139C01B00D201399FB27743C91B64
:105A6000C91B170C77437E04FF0B801BB941CE087E
:105A70006643360C0C2D33DBB644120B1F053A433C
:105A80001B0B97B27743C01B00D201399FB27743FB
:105A9000C91B170C77433E043F0C801BB941860D90
:105AA0008F023E43664329277F1BFE400C3D77460D
:105AB000AF40BF1930BCA2B2ABB272437343801A7D
:105AC0009941220C7243130C1204801A994102006E
:105AD0000B000137001BA941F9D2781E0021F0BD4F
