:020000041000EA
:1000000000B5324B212058609868022188439860DF
:10001000D860186158612E4B002199600221596106
:100020000121F02299502B49196001219960352056
:1000300000F044F80222904214D00621196600F024
:1000400034F8196E01211966002018661A6600F04E
:100050002CF8196E196E196E052000F02FF8012189
:100060000842F9D1002199601B49196000215960AB
:100070001A491B48016001219960EB211966A021F2
:10008000196600F012F800219960164914480160C1
:100090000121996001BC002800D000471248134993
:1000A000086003C880F30888084703B5996A0420EC
:1000B0000142FBD001200142F8D103BD02B5186610
:1000C0001866FFF7F2FF186E186E02BD00000240BE
:1000D000000000180000070000035F00212200005C
:1000E000F4000018222000A00001001008ED00E03C
:1000F00000000000000000000000000074B24E7A12
:1001000000200420F7010010C3010010C5010010F9
:10011000C1010010C1010010C1010010C101001097
:10012000C1010010C1010010C1010010C701001081
:10013000C1010010C1010010C9010010CB01001065
:10014000CD010010CD010010CD010010CD01001037
:10015000CD010010CD010010CD010010CD01001027
:10016000CD010010CD010010CD010010CD01001017
:10017000CD010010CD010010CD010010CD01001007
:10018000CD010010CD010010CD010010CD010010F7
:10019000CD010010CD010010CD010010CD010010E7
:1001A000CD010010CD010010CD010010CD010010D7
:1001B000CD010010CD010010CD010010CD010010C7
:1001C00000BE00BE00BE00BE00BE00BE00F04BF888
:1001D000103800BEF2EB8871382801108828011011
:1001E0003402001090A31AE700202149086006C8D5
:1001F00081F3088810471F48006800282FD10DA4FC
:100200000ECC002902D000F012F8F9E71A491B4A77
:10021000002000E001C19142FCD1194988471949E9
:1002200088471949884700BEFDE701C901C29A42C3
:10023000FBD3704788280110C0000020341500202F
:10024000FC3C01100000042000000420FC3C0110D4
:1002500000100420001004200000000070470B482C
:1002600004F084FF0047EFF30580C0B27047000040
:1002700008ED00E0000000D038150020882F002095
:100280001535001071040010393600105756000063
:1002900006005250ABB36053D01501100600525007
:1002A000861C0302E0150110060052505422A29D44
:1002B000E815011005005250DE65F468FC3C0110A1
:1002C000F8B5C0460448054B10B5834203D0044B33
:1002D000002B00D0984710BD3415002034150020A5
:1002E0000000000006480749091A8B10C90FC918F9
:1002F00010B5491003D0044B002B00D0984710BD17
:1003000034150020341500200000000010B5074C03
:100310002378002B09D1FFF7D5FF054B002B02D026
:10032000044800E000BF0123237010BD48180020DE
:1003300000000000900E0110054B10B5002B03D0FB
:100340000449054800E000BFFFF7CCFF10BDC046E0
:10035000000000004C180020900E0110F0B5C646B9
:10036000012400B5AAB000F0E3FE06F0BDFA364B5A
:10037000364D374E374F1C709846374B1D201C703A
:100380002C7034703C7001F0F7FCD02380221B06E7
:1003900092055A625A614346E1221B780121039378
:1003A0002E4B00201B78520202933B780193337846
:1003B00000932B4B01F0C2FB2B78002B0FD1E122D5
:1003C00005210420274B520201F0AAFCD0238022F1
:1003D0001B0692059A612AB080BCB846F0BD152074
:1003E000214E04AF336803220493337900213B711B
:1003F000684405F0BBFFB36806AD0693B389694650
:10040000AB80B37BAB710023EB7132690892B28A87
:10041000CB840AAB98468A844246144B43CB43C2F2
:1004200043CB43C241201B780021137068446722EC
:1004300005F09CFF43462A000193012138000094F7
:1004400008AB00F043FEBAE7822F0020702F002097
:10045000842F0020872F0020852F0020832F00204D
:1004600000400340008003403C0F0110540F011076
:10047000F8B5DE464E4645465746E0B5FFF76EFFF7
:100480003C4B3D4D9B463D4B3D4C9A463D4B3E4E75
:1004900099463E4B984601F065FA02F0B5FC0029FA
:1004A00036D0FA220023920004F0FCFE2B68C01A1A
:1004B000B04203D9364B1B78002B33D102F0A4FC99
:1004C00000292AD0FA220023920004F0EBFE2368D0
:1004D000C01A304B9842DED92F4B1B78002BDAD054
:1004E00002F092FC00293AD0FA220023920004F094
:1004F000D9FE49462060404601F084FB494640460B
:1005000001F096FB01F02EFA02F07EFC0029C8D122
:10051000FA21890004F084FEC8E7FA21890004F07A
:100520007FFED4E7584601F05DFB504601F062FBC8
:1005300002F06AFC002917D0FA220023920004F08E
:10054000B1FED02780233F069B05286051467B6182
:10055000584600F003FB80239B05BB61AEE7FA2100
:10056000890004F05DFEC4E7FA21890004F058FE1A
:10057000E7E7C046741E00202C2B0020201D002021
:10058000302B0020A8040020BFD401000C0500205F
:10059000702F00200F270000852F0020F8B50823BA
:1005A0004E46454657469846DE46AF4BE0B599461F
:1005B00007004646AD4CAE4D01214B460A001B8854
:1005C0003A405808534019425DD14B461880A94B18
:1005D0001B78002A2DD0002B00D1D3E002F014FCB0
:1005E000D0220023920080185941A14B2060616005
:1005F000984600239B46A04B9A4607E05246D05CA3
:1006000000F09AFD1720002102F008FC02F0FCFB2C
:1006100063688B4200D876E0434642461B7801333C
:10062000DBB21370202BE9D143465A4698201A704A
:10063000E6E7012253408F4A13703BD002F0E4FBFF
:10064000D022002392008018594100239A468A4BF9
:1006500020606160984607E04246D05C00F06CFD87
:100660001720002102F0DAFB02F0CEFB63688B4218
:100670000ED92B780133DBB22B70202BECD15346F3
:1006800098202B70EAE749467C4B43400B809EE75D
:100690008B4202D123688342EBD80023784A13703F
:1006A000013E7F08002E87D1F0BCBB46B246A9466A
:1006B000A046F8BD02F0A8FBD022002392008018CB
:1006C0005941002320606160984607E06A4AD05C87
:1006D00000F032FD0F20002102F0A0FB02F094FB9D
:1006E00063688B4209D92B780133DBB22B70202B46
:1006F000ECD1434698202B70EAE78B42CDD123689A
:100700008342F0D8C9E78B4203D12368834200D9E2
:1007100082E75B4B5A4A1B780133DBB21370052B1F
:10072000BED10122534B1B785340524A137069D0FB
:1007300002F06AFBD02200239200801859414C4BF2
:1007400020606160984600239B464B4B9A4607E029
:100750005246D05C00F0F0FC1720002102F05EFB56
:1007600002F052FB63688B4245D9434642461B78F0
:100770000133DBB21370202BEAD143465A4698204E
:100780001A70E7E702F040FBD022002392008018A5
:100790005941374B20606160984600239B46364B99
:1007A0009A4607E05246D05C00F0C6FC0F200021BC
:1007B00002F034FB02F028FB63688B420CD94346FD
:1007C00042461B780133DBB21370202BEAD143463B
:1007D0005A4698201A70E7E78B429AD123688342E1
:1007E000EDD8274B264A1B780133DBB21370052B5B
:1007F00000D055E795E78B4200D04EE7236883424F
:10080000B3D84AE702F000FBD02200239200801800
:100810005941174B20606160984600239B46164B58
:100820009A4607E05246D05C00F086FC0F2000217B
:1008300002F0F4FA02F0E8FA63688B420CD94346FE
:1008400042461B780133DBB21370202BEAD14346BA
:100850005A4698201A70E7E78B4200D01DE72368BC
:100860008342ECD819E7C046F8050020381600206E
:10087000762F00207D2F0020681001100884FFFFD4
:10088000712F0020F0B5C64600B5046805000E00C3
:1008900082B00021201C05F06DFC002800D09AE0F9
:1008A000201C05F0A9FC070005F084FC011C201C9D
:1008B00005F017FC5F4905F02EFCFF24804605F08B
:1008C0009BFC0440200005F075FC011C404605F02F
:1008D00008FC594905F01FFC05F0C6FC05F062F85C
:1008E00004F0C6FFC0B201903B000921534A5448AE
:1008F000009404F0D1FB6C680021201C05F03AFC48
:1009000000283AD1201C05F077FC050005F052FCC8
:10091000011C201C05F0E5FB464905F0FCFBFF240B
:10092000071C05F069FC0440200005F043FC011C95
:10093000381C05F0D6FB404905F0EDFB05F094FCB2
:1009400005F030F804F094FFC0B201902B000A21AA
:100950003C4A3D48009404F09FFB7388B288002B0A
:1009600001D16933FF3300920821384A384804F036
:1009700093FB02B080BCB846F0BD64006408201C44
:1009800005F03AFC050005F015FC011C201C05F0E3
:10099000A8FB284905F0BFFBFF24071C05F02CFC31
:1009A0000440200005F006FC011C381C05F099FBF2
:1009B000214905F0B0FB05F057FC04F0F3FF04F00B
:1009C00057FFC0B201902B000A21224A00941E4812
:1009D00004F062FBC1E764006408201C05F00CFC15
:1009E000070005F0E7FB011C201C05F07AFB11490C
:1009F00005F091FBFF24804605F0FEFB044020003B
:100A000005F0D8FB011C404605F06BFB0A4905F0D8
:100A100082FB05F029FC04F0C5FF04F029FFC0B2F9
:100A200001903B0009210C4A0094054804F034FB76
:100A300061E7C046000070420000C8425810011033
:100A4000F828002048100110142900203C10011043
:100A5000441E00202C1001101C100110F8B53A4C57
:100A600020000AF05DFB0700051E46D026182078FE
:100A700001344000C0B2FFF791FDA642F7D1052F27
:100A80003BD96020FFF78AFD304C20000AF048FB7C
:100A90000700051E3ED02618207801344000C0B261
:100AA000FFF77CFDA642F7D1052F33D9284B1868F4
:100AB00030304000C0B2FFF771FD264C20000AF034
:100AC0002FFB0700051E32D0261820780134400085
:100AD000C0B2FFF763FDA642F7D1052F27D91E4B01
:100AE000186840006130C0B2FFF758FD0320FFF7DF
:100AF00055FDF020FFF752FDF8BD40200135FFF70E
:100B00004DFD062DBDD040200135FFF747FD062DD8
:100B1000F3D1B6E740200135FFF740FD062DC5D0E3
:100B200040200135FFF73AFD062DF3D1BEE7402006
:100B30000135FFF733FD062DD1D040200135FFF7F9
:100B40002DFD062DF3D1CAE7FC050020700500201D
:100B500010060020040600200C060020F0B5DE463A
:100B600057464E464546E0B5040085B000680D0086
:100B700005F07AFBD14AD24B06000F0004F00EFEBE
:100B800000285CD0CF4B98461B78002B00D18AE21E
:100B900030003900C94ACA4B04F0F8FD00285BD187
:100BA000012000F0E3FB012000F0D6FB290020002B
:100BB000FFF768FE9623C44FC44CC54D039308232A
:100BC0009946763398464E46012142463B880A4074
:100BD00058085340194276D13880BE4B1B78002A02
:100BE00046D0002B00D19AE102F00EF9D02200236A
:100BF000920080185941B64B2060616099460023ED
:100C00009B46B54B9A4607E05246D05C00F094FAFA
:100C10001720002102F002F902F0F6F863688B4217
:100C200000D870E14B464A461B780133DBB21370A3
:100C3000202BE9D14B465A4698201A70E6E730003F
:100C400039009E4A9E4B04F0B7FD0028A8D09D4B6A
:100C500098461B78002BA3D00026A0490023082229
:100C600001960096081C00F071FA43461E7097E743
:100C700001225340974A137000D1FBE002F0C4F800
:100C8000D022002392008018594100239A46924BAB
:100C900020606160994607E04A46D05C00F04CFA5B
:100CA0001720002102F0BAF802F0AEF863688B4218
:100CB0000DD92B780133DBB22B70202BECD15346AE
:100CC00098202B70EAE7864B43403B8085E78B42B8
:100CD00002D123688342ECD80023824A1370434632
:100CE000013E5B089846002E00D06DE7039B013B58
:100CF0000393002B00D062E701235B423B80FFF7A8
:100D0000ADFE2120FFF74AFC774D28000AF008FAD3
:100D10002E18002805D028780135FFF73FFCAE4299
:100D2000F9D15C20FFF73AFC704D28000AF0F8F981
:100D30002E18002805D028780135FFF72FFCAE4289
:100D4000F9D12D20FFF72AFC694D28000AF0E8F9B7
:100D50002E18002805D028780135FFF71FFCB54272
:100D6000F9D1644D28000AF0DBF92E18002805D0CF
:100D700028780135FFF712FCB542F9D13D88E843E8
:100D8000C0B2FFF70BFC280AC043C0B2FFF706FC55
:100D900003234F4D03930823994676331E00012108
:100DA0000A003B8832405808534019425ED13880CF
:100DB000484B1B78002A2DD0002B00D13EE102F0D9
:100DC00023F8D0220023920080185941404B206024
:100DD0006160984600239B463F4B9A4607E0524687
:100DE000D05C00F0A9F91720002102F017F802F0FA
:100DF0000BF863688B4200D814E1434642461B78E7
:100E00000133DBB21370202BE9D143465A469820B8
:100E10001A70E6E7012253402E4A137000D1D8E041
:100E200001F0F2FFD02200239200801859410023E4
:100E30009A46294B20606160984607E04246D05CA4
:100E400000F07AF91720002101F0E8FF01F0DCFF43
:100E500063688B4200D897E02B780133DBB22B70AC
:100E6000202BEBD1534698202B70E9E71C4B4340D5
:100E70003B809DE701F0C8FFD0220023920080183C
:100E80005941002320606160994607E0124AD05C16
:100E900000F052F90F20002101F0C0FF01F0B4FF73
:100EA00063688B4228D92B780133DBB22B70202B5F
:100EB000ECD14B4698202B70EAE7C046F41ABB44AD
:100EC000F5B631407F2F0020F805002038160020AD
:100ED000762F00207D2F002068100110D76310436B
:100EE0000884FFFF712F0020F8280020142900201B
:100EF000441E0020780500208B4200D0ECE62368D9
:100F00008342D0D8E8E68B4203D12368834200D9DC
:100F100088E66A4B694A1B7801331370DFE601F0FB
:100F200073FFD0220023920080185941644B206047
:100F30006160994600239B46624B9A4607E0524601
:100F4000D05C00F0F9F80F20002101F067FF01F0FC
:100F50005BFF63688B420CD94B464A461B780133D2
:100F6000DBB21370202BEAD14B465A4698201A70F8
:100F7000E7E78B42CDD123688342EDD84F4B4F4AF0
:100F80001B7801331370AAE68B4203D12368834296
:100F900000D961E70023494A137001235B429C4654
:100FA000E1444B467608002B00D0F8E6039B6344EF
:100FB0000393002B00D0EEE6002000F0CDF90020D6
:100FC00000F0D4F905B0F0BCBB46B246A946A04635
:100FD000F0BD01F019FFD022002392008018594182
:100FE000002320606160984607E0364AD05C00F03C
:100FF000A3F80F20002101F011FF01F005FF636845
:101000008B4209D92B780133DBB22B70202BECD12A
:10101000434698202B70EAE78B42BBD1236883427A
:10102000F0D8B7E78B4203D12368834200D9E4E6C6
:10103000224B224A1B7801331370AEE701F0E4FE25
:10104000D02200239200801859411D4B206061601E
:10105000984600239B461B4B9A4607E05246D05CBD
:1010600000F06AF80F20002101F0D8FE01F0CCFE5C
:1010700063688B420CD9434642461B780133DBB28E
:101080001370202BEAD143465A4698201A70E7E79E
:101090008B42CDD123688342EDD8084B074A1B7899
:1010A0000133137079E70849082201930093081C63
:1010B00000F04CF801234246137071E5712F0020B7
:1010C000762F002068100110CD0C1143F8B50700F1
:1010D00016001D000C0000F053F900220D4B3900E2
:1010E0001A700D48083205F047F9310008220B4804
:1010F00005F042F929000822094805F03DF980224F
:101100000799084805F038F9074B069A1C60074B09
:101110001A60F8BD7F2F002070050020FC0500201C
:101120000406002078050020100600200C06002090
:1011300010B500F05DF910BDD0231B061A698004BC
:101140005040FF2292041040D8617047F0B5DE464F
:10115000574645464E46E0B5A1B003932AAB1B78EF
:10116000029104932BAB1B780121071C7048924617
:10117000059308F097F86F4B804619006C489B4622
:1011800008F0AEF880235B0181461A0041466848AA
:1011900008F040F980235B011A004146644808F0DA
:1011A0007BF906210C2000F0CFFD80235B02079322
:1011B0004B464A460333D2011B0313435E4A0520C4
:1011C00013408022D205134308935C4B0A935C4B77
:1011D000099302F0C9FB04F0E7FF5A4904F087FFC6
:1011E000051C05F03BF884B20023002C0ED0200033
:1011F00004F0DAFF011C281C04F073FF8721C905E5
:1012000004F089FF05F02AF8C3B21B0224041C4332
:1012100007940124464E4A46414607AB300008F089
:101220007FF9230041468B403268B4461343336054
:10123000434610339C40434641219D00424A654449
:10124000013273681C42FCD1296111780029F7D161
:10125000FA20800001F0EAFC381C05F005F80600D1
:1012600002980F0005F000F83B0000900191320059
:10127000364907A803F0FCFE04AB197B07A8002938
:1012800008D02B4A013053681C42FCD129610178F7
:101290000029F7D1FA20800001F0C8FC5346013B39
:1012A000072B01D904239A462949524607A803F07F
:1012B000DFFE04AB197B07A8002908D01C4A0130C7
:1012C00053682342FCD1296101780029F7D1FA2023
:1012D000800001F0ABFC059B1E490093039A049B20
:1012E00007A803F0C5FE04AB197B07A8002908D0A6
:1012F0000F4A013053682342FCD12961017800294B
:10130000F7D1FA20800001F091FC4A46594608487E
:1013100008F04AF84146064807F0B4FF044808F0D0
:101320005DF821B0F0BCBB46B246A946A046F0BD70
:1013300000002050C8110110FFFFFF9F0C3010402B
:1013400000000C4000009647881001109810011012
:10135000C4100110DC100110D02380221B065202A1
:10136000002801D05A6170479A61FCE7D02380229F
:101370001B06D201002801D05A6170479A61FCE730
:1013800070B5D0248026802582B01748240601F04D
:101390004DFC7602102000F0EFFCED0166620E209D
:1013A000A66100F0E9FC65620F20656100F0E4FCD5
:1013B0008023FA201B02A362800001F037FC002387
:1013C0000A4801930093011C0822FFF7BFFEA661A3
:1013D0006561FF25AD04280000F0ECFC236A9D4305
:1013E000E56202B070BDC04610270000D76310430D
:1013F0007047C046F0B5060083B009F091FE33781F
:101400000021243B5A425341002498420BD9002426
:10141000F318351803E001334C409D4202D019788F
:101420000029F8D12100274B274D1B782C70274C21
:10143000002B3FD1264D237832000091280025490A
:1014400003F016FE244B1B689A69920603D5082107
:101450009A691142FCD12C7828000021002C1AD066
:101460001E4D20225D196F427D410D27BC461C4E4A
:101470006D00002911D1A95FA14215D099690A42D6
:10148000FCD11C60017801300D394C426141047877
:10149000C9B2002CEDD103B0F0BD99690A42F0D079
:1014A00099690A42F9D1ECE799690A42FCD161468F
:1014B0001960E3E70B00227831000A4805F008FACA
:1014C0002978B7E7802F00207E2F00201C060020FF
:1014D000542B00209C1201104C2F00200080FCBFD8
:1014E000542F002014120110F0B5DE464546574631
:1014F0004E46E0B56F4B704C1D6821002A006F48C6
:1015000085B004F039FF6E4B1D606E4B1A689B4628
:10151000A35C2A2B5CD06C496C4D88466C498A468A
:101520002C2B6CD06B4940460F7851460026006842
:1015300009688446B1460020009703910DE02E2BE8
:1015400002D101200127814601326B54A35C0120A6
:1015500001312C2B0BD02A2B41D02D2BEFD1012385
:1015600001325B429C46A35C01262C2BF3D1002E5A
:1015700002D0434666461E604B46002B00D192E0E7
:10158000544B1F70002800D191E0534619605B4610
:101590001A6000236B54002F39D1280008F00EF890
:1015A0004D4B1E6843461B68720058434B4BD0524C
:1015B0005B461A68A35C2A2B46D15A46263B136029
:1015C000002352461360444A1360424601331360BD
:1015D00005B0F0BCBB46B246A946A046F0BD002E01
:1015E00002D0434666461E604B46002B01D0394B65
:1015F0001F70002801D0534619605B461A6053469D
:101600001968344B1F7800236B54002FC5D0434614
:10161000186804F0CFFD04F027FE00900191280027
:1016200007F0C6FF0B002C4902000E6800980199D4
:1016300004F069F804F060F9294BB700D8515B4613
:101640001A68A35C2A2BB8D05B4601321A600021CD
:10165000534619601F4B1B78002B01D0012E18D068
:10166000013600211C4B1E601A4B19704346013194
:1016700019601C4B1B78002B03D01B4E3378002BBA
:1016800009D00121194B1970A35C2A2B00D047E720
:101690009EE70026E5E71648FFF7ACFE012333700E
:1016A0005B461A68EDE7009F002800D06DE70399BC
:1016B0006DE7C046202900202429002024080020AE
:1016C00020080020240600202006002000230020FF
:1016D000F8220020772F0020FC220020281D002067
:1016E00004290020782F0020792F0020732F00205C
:1016F00028120110F8B5DE4657464E4645462D4B9A
:10170000E0B51C682C4B220019002C489A4604F0C6
:1017100033FE2B4B2B4F1C602B4B2C4E99461C78C9
:101720002B4B98461D00062343449B46002C3FD07C
:10173000317822003800514404F01EFE00233B554E
:10174000380007F03BFF4B4628701C783378013592
:10175000E3183370AB45E9D10623FA2233704346D0
:10176000D20094461B781B486344436143465B7830
:10177000013B036143469B78C3604346DB7883604B
:1017800043461B79436043465B79036008F00EFBD8
:10179000FA210300104A4900104809F0B9FC01225F
:1017A0000F4B1A70F0BCBB46B246A946A046F8BD26
:1017B0003C70C5E720290020242900202C060020A9
:1017C00028060020002100201A0600201B06002009
:1017D00014060020DC2000203C1201107C1E00209A
:1017E000782F0020F0B5C64600B5264C86B020798B
:1017F0002A2835D00023043405E00133E05C1A00C8
:1018000021002A282ED02428F7D11F4C2068002838
:1018100033D11E4D286804F027FD1D4B0600984665
:101820001C4B0F0005931C4B9A8804925A88039214
:101830001B880293686804F017FD3B00009001913B
:1018400032004046154903F013FC154B1B78002B62
:1018500013D04046FFF7CEFD2368013323600CE030
:101860000022211D0F4C200004F086FD200007F00F
:10187000A5FE054C20600028CBD006B080BCB84641
:10188000F0BDC04624290020342B0020042900206C
:10189000482D00207C1E0020281D0020D81101109A
:1018A000782F0020382B0020F0B5264B87B0997890
:1018B0004E2911D05A78442A16D04D2A07D0542ADE
:1018C00002D11B79532B19D0002007B0F0BD542949
:1018D000FAD1FFF787FFF7E71A79452AEAD04F2AAE
:1018E000E8D0FFF701FEEFE7174A12689B18043BA8
:1018F0001B78562BE8D1FFF7FDFEE5E7134E306865
:1019000004F0B2FC124B04000593124B0D009A88B0
:10191000114F04925A8803921B880293706804F056
:10192000A3FC2B0000900191220038000B4903F02A
:101930009FFB0B4B1B78002BC6D03800FFF75AFDDE
:10194000C2E7C046242900202029002004290020C5
:101950007C1E0020281D0020482D0020D8110110D9
:10196000782F0020194B70B519688B69DB060BD4F2
:10197000174B1B78002B07D010228B691A42FCD121
:101980000B68DBB2242B00D070BD01251022114E54
:101990003370013E14008B691C401A42FAD10B6867
:1019A000681CDBB233540A2B01D00500F2E70A4B66
:1019B000701C1D60094B44551B78002B02D1FFF7AA
:1019C00073FFE1E704F040FEF9E7C0464C2F00202A
:1019D000812F00202429002020290020802F002092
:1019E000F8B54746CE4680B50600884601F00CFAA9
:1019F000002900D18EE0FA220023920003F052FC6D
:101A0000050001F001FA002900D17EE0FA2200234E
:101A1000920003F047FC424C2378002B24D1002E87
:101A200022D0404B404E9946404F336883421BD3EF
:101A3000FFF798FF3B68152B09D14B469B79422B4A
:101A400005D14B461B7D612B01D1603B237001F01A
:101A5000DBF9002940D0FA220023920003F022FC97
:101A60002378401B002BE0D001F0CEF900293FD0B5
:101A7000FA220023920003F015FC05004346002BD8
:101A80003FD02B4B280098462A4C2B4E254F2278CE
:101A9000002A03D043461A78002A32D133688342A1
:101AA0002FD3FFF75FFF3B7C362B27D0652B02D16E
:101AB00001221F4B1A7001F0A7F9002906D0FA2263
:101AC0000023920003F0EEFB401BE0E7FA218900BF
:101AD00003F0A6FB401BDAE7FA21890003F0A0FB24
:101AE0002378401B002BA0D001F08EF90029BFD134
:101AF000FA21890003F094FB0500BFE7353B237012
:101B0000D9E7C0BCB946B046F8BDFA21890003F058
:101B100087FB80E7FA21890003F082FB050070E76C
:101B2000732F0020242900201C0A002020290020D7
:101B3000792F0020782F0020180A0020F0B5C64623
:101B400000B50500180006AB1E7807AB1B780C002B
:101B5000984608AB11001A7809AB1F78174B18602C
:101B6000174B1E70174B1A7001F064FC02212800FD
:101B700000F0EAF80221200000F0E6F841463000CB
:101B8000FFF72EFF1048FFF735FC1048FFF732FC37
:101B9000002F08D10E48FFF72DFC0E48FFF72AFC56
:101BA00080BCB846F0BD0C48FFF724FC0B48FFF79B
:101BB00021FC0B48FFF71EFCECE7C0464C2F002031
:101BC000812F0020802F00204C1201105412011090
:101BD0008C120110941201105C1201106C12011091
:101BE0007C12011010B50822014904F0C5FB10BD9C
:101BF0000429002010B50622014904F0BDFB10BDE8
:101C0000281D002010B50C00054B06491A6804F089
:101C1000B3FB054B20001A68044904F0ADFB10BD6E
:101C20002008002024080020280600202C06002080
:101C3000384B394A1B68F0B59A18050050424241AA
:101C400036485200145E672C5CD020269A691642F2
:101C5000FCD167221A602E78002E13D000200D27A9
:101C6000473A00282FD1B44234D098690242FCD1BF
:101C70001E60287801350D38464270412E78C0B27A
:101C8000002EEED10D78002D14D008002022002166
:101C90000D26002923D1AC4228D099690A42FCD1F3
:101CA0001D60017801300D394D4269410578C9B296
:101CB000002DEED10A2C1ED020219A691142FCD1B0
:101CC0000A221A60F0BD98690242D1D09869024296
:101CD000F9D1CDE798690242FCD11F60C5E7996947
:101CE0000A42DDD099690A42F9D1D9E799690A42D5
:101CF000FCD11E60D1E720219A691142FCD10D224E
:101D00001A60D9E720209A691042FCD10D221A608E
:101D10009BE7C046502F00200080FCBF542F0020BE
:101D200070B5050018000C00064B1100186001F09A
:101D300081FB2800022100F007F80221200000F0BA
:101D400003F870BD502F0020094A830094464022BA
:101D5000634410B51C68C0006240C0241440802257
:101D6000520113431C60034B9C466044416010BD0C
:101D700004C00140004001400123D02283401206EC
:101D800093629361094A8300944640226344196830
:101D9000C0004A40C0211140802252011343196003
:101DA000034B9C46052360444360704704C00140D8
:101DB000004001404021F0B5D6464F464646884691
:101DC0008031D0258C46C0B5BB3980270023012443
:101DD0008A46104A2D067F01044211D02100994005
:101DE0004646A962A96111687140664631403E00CD
:101DF00016433160084ED900B146564649440E603C
:101E00000133400804321E2BE6D1E0BCBA46B1468D
:101E1000A846F0BD04C0014004400140EFF310802B
:101E200072B6034A1368002BFCD0BFF35F8F704774
:101E30002C0100D0BFF35F8F0022024B1A6080F3A9
:101E4000108870472C0100D070B5EFF3108C72B67B
:101E50000D4D2B68002BFCD0BFF35F8F0724CB0800
:101E6000C618C05C01230C40A3401C000440034280
:101E700007D103433370BFF35F8F2C608CF310885E
:101E800070BD100001F0F4FB2C0100D0F8B54746FE
:101E9000CE46884680B5EFF3108C72B6214D2C6883
:101EA000002CFCD0BFF35F8F9A422CD8D4080727B0
:101EB000055D061901241740BC402C421FD00721A4
:101EC0000127894609E0D408055D06194C4639000A
:101ED0001440A1400C00294211D001329342F2D2A9
:101EE00001204042BFF35F8F00220E4B1A608CF33B
:101EF000108800280FDBC0BCB946B046F8BD2C43A3
:101F000010003470EEE7BFF35F8F00232B608CF37B
:101F10001088012040424346002BECD0089801F085
:101F2000A7FBC0462C0100D030B5EFF3108C72B681
:101F30000A4C2368002BFCD0BFF35F8F07230122DC
:101F4000CD0819408A40435D93434355BFF35F8FEB
:101F5000002323608CF3108830BDC0462C0100D0D4
:101F6000024B18688007C00F7047C04600C006408B
:101F70000021044B044ABFF35F8F02C39342FAD19E
:101F80007047C046000100D0800100D0044A10789C
:101F9000431CDBB2172B00D9102313707047C046C7
:101FA000200A002000B5054B83B0010000931822E1
:101FB0001F230348FFF76AFF03B000BDA8120110FA
:101FC000401E002001238340002904D0034A1360EF
:101FD000034A13607047034A1360FBE780E200E0A6
:101FE00000E100E080E100E001238340014A13604A
:101FF0007047C04600E200E0084B10309B6880004C
:10200000C358002B07D0064A00209B1A2F229A4261
:102010004041C0B270470020FCE7C04600ED00E040
:10202000240A0020024B10309B688000C058704783
:1020300000ED00E070B50D00EFF3108672B60F4AA8
:102040001368002BFCD0BFF35F8F0D4B10309B68E3
:1020500084001B590B4A934203D09D4201D001F0EA
:102060001FFB074B9B681D51BFF35F8FBFF35F8F53
:102070000022024B1A6086F3108870BD240100D044
:1020800000ED00E0CD010010F0B557464E46DE46AB
:102090004546E0B585B0060002911700EFF3108BBE
:1020A00072B6674A1368002BFCD0BFF35F8F002520
:1020B000644B5D579A46002D00DAA5E06B00624C38
:1020C00003935B199B009846A146C1444B46524678
:1020D0009B79103613705D4BB2009B680192995842
:1020E0000B1B2F2B34D95A4B994200D0A5E0039BF0
:1020F000584A9C46584B6544AD00635343460233EF
:102100006519E418554B0121043B1B1B1B055B0D96
:1021100013436B80524BEF71AB80FF23AB71029B7B
:10212000AB604B460B431900484B019A9B68995092
:10213000BFF35F8FBFF35F8F0022414B1A608BF3B9
:10214000108805B0F0BCBB46B246A946A046F0BD1B
:1021500001200A008243D379BB422FD845464E4620
:10216000130040491B1B5B415943090D3A4B635314
:102170003A4B02356519043B5B1B1B05354D5B0D66
:102180002B4373800426B446E0444444131F1B1BB6
:102190004C46A17102991B05A16049465B0D2B437A
:1021A000A380314BE77101431360BDE75800C018AD
:1021B00080002018C679BE422CD902000623D356CF
:1021C000002BF3DA101D8246BD2000028046042653
:1021D0007642B446E14450464E46361A3005400D2C
:1021E000824656461B48957106439680039A94464C
:1021F00065441D4AAD00641922604246A371029BEA
:10220000A280E771A3608FE701F04AFA00255346E8
:102210005D5753E7101D824690884005001584469F
:102220004046D444664604302018301AE0260005A3
:10223000400D360230438046C9E701F031FA56E7D7
:10224000240100D07A2F0020240A002000ED00E0B5
:10225000CD01001000E0FFFF00A1FFFF540A0020A5
:1022600000BDFFFFAAAA000001488047F0B5DE4686
:1022700057464E464546E0B50C0083B0EFF3108A52
:1022800072B65A4A1368002BFCD0BFF35F8F10223E
:10229000914681444A46564B96009B689D59554B42
:1022A00098469D4205D0A54216D0534FEB1B2F2BCD
:1022B00014D94F4B9B689D51BFF35F8FBFF35F8F66
:1022C00000224A4B1A608AF3108803B0F0BCBB4668
:1022D000B246A946A046F0BD1D00EAE701238340AF
:1022E0009B465A46454B1B681A4000925A46444B3F
:1022F0001A60BFF35F8FFDF7B6FF0190002803D08F
:10230000814501D001F0CCF901232A009A4393685A
:102310009C4208D15FE04B005B189B00FB1899685A
:10232000A14211D01A00062151560029F3DA009B70
:10233000002B05D05A46334B1A60304B1A60B8E771
:102340005A462F4B1A60B4E706215956002921DB63
:102350004A00501880003C188046A0689860E079D8
:10236000D871062020569871002824DBA488F81A1A
:102370006405241544440019E0240005400D24029E
:10238000204398805218204B9200BF181A78197079
:10239000BA71CCE70199002910D1FF3191711B4925
:1023A000918019490A789A71194ADB1B5B415A439B
:1023B000120D0A70BBE7BD200002E2E7154A16497C
:1023C000D21A083A5002400D01439980134952082D
:1023D0000A43DA80ABE70621515613000029B7DA29
:1023E000019A002AEAD14546DBE7C046240100D025
:1023F00000ED00E0CD010010240A002000E100E023
:1024000080E100E080E200E07A2F002000BDFFFFC5
:10241000AAAA00005E0A002000F0FFFF00F8FFFFFC
:10242000F8B5012504000543FDF71DFFEFF3108CFF
:1024300072B6214A1368002BFCD0BFF35F8F1F4E8A
:102440002100B7681E4A1F4B891A49414B431B0D97
:1024500059B28300F858A8421CD00623D3568B42A9
:102460001CD01223D3568B4222D01E23D3568B422C
:1024700020D02A23D35603208B4210D0124B1A7837
:102480001970A271BFF35F8F00220B4B1A608CF39F
:102490001088F8BDB2680D48D050EFE70020430027
:1024A0001B189B00D218FF239371094B9380E5E71B
:1024B0000120F4E70220F2E7240100D000ED00E063
:1024C000240A0020AAAA00007A2F0020CD010010C3
:1024D00000BDFFFF054B064A1360064A13605360B8
:1024E0009360D360136153619361704780808080F3
:1024F00000E400E004E400E0D02300B51B061B6804
:102500000100074883B0C018064B00220093052342
:10251000FFF7BCFC002801DB1F23181A03B000BD25
:102520006C2F0020C4120110024B9C4661448900AC
:10253000016070474000003483680B4810B5844642
:1025400061446244090112019A18591854684B6891
:1025500001209C4201D802D00020C0B210BD1268F8
:102560000B689A42F9D8F7E7FFFFFF0F0A4B19688B
:10257000EFF3108072B60A68002AFCD0BFF35F8FB9
:102580001B68BFF35F8F00221A6080F3108840BF82
:10259000002000217047C046482B0020F8B5574660
:1025A0004E464546DE46E0B599460CAB1C780DAB71
:1025B0001B78060090469A460768002C11D1BC7B18
:1025C000002C42D065003B682D19033D59194B780A
:1025D000BB73002B00D1FB7300238B704B700B700F
:1025E00004E065003B682D19033D5919B2682A4B78
:1025F00094464246E3181B0163441A604A465A60F7
:102600000A9A9A600B9ADA6000238B704B700B70F9
:102610007B7B9B46002B2BD022005946B8687B68F9
:1026200098473A68002816D05B4658465B005B44E2
:102630005519033BA870D118D35C002B00D06B70E8
:102640005B460C707B73A34513D0F0BCBB46B2460F
:10265000A946A046F8BD5B465B005B44033BD3182C
:102660009C705119525D002A00D05A705B460B7065
:102670007C7342464B46307D00F050FC051E06D070
:102680005346002B03D12100306800F069FE0E9BF9
:10269000002BDAD01D70D8E7FFFFFF0FF0B5DE4644
:1026A0004E46574645460023E0B58DB00A936B4B26
:1026B0008200D3580B90994600239B464B460793C4
:1026C00000F0A2FB079C06000F006268EFF3108584
:1026D00072B61368002BFCD022000794BFF35F8F03
:1026E0002468637B9946002B67D092685C4B9046C8
:1026F0004B441B01984443461A685B68100019005C
:10270000801BB94100295FDD0B9800F007FC002316
:102710000026984600279A46079C6368BFF35F8FA0
:102720005A461A6085F310885346002B08D10028BA
:10273000C6D10DB0F0BCBB46B246A946A046F0BD1E
:102740000A9B414618024B461843D047089009910E
:102750006268EFF3108572B61368002BFCD0079403
:10276000BFF35F8F0899099A002A48DB114303D011
:10277000079B1B69002B5DD1079B1B68D97B002938
:1027800007D04A00521819688C4649466244033AF9
:1027900051704A46DA734B46079A013BD168CA5CCE
:1027A0000132CA545B46079A13615368BFF35F8FC7
:1027B0005A461A6085F3108882E70023002698465F
:1027C00000279A460020A7E7002901D100289BD1C5
:1027D0000021200000F046FD43461E685F689B68AC
:1027E000079A9A464346DB689846D3684B44013BB8
:1027F0001B780A931B020343136100208CE72369B3
:10280000002BB9D033003C005B1A94411A0023001E
:10281000A74219D89F421BD0594604910121039128
:102820004946029141460191514607980091FFF7B0
:10283000B5FEB7E700F0E8FA089A099B06000F001A
:1028400092197B419942E5D901225242D317E3E71D
:102850009642E1D901225242D317DDE71C2B00201A
:10286000FFFFFF0FF8B557464E464546DE46E0B53A
:10287000404D81468A466A68EFF3108872B6136845
:10288000002BFCD0BFF35F8F2E68B47B002C39D0B7
:10289000670033683F19033FDB195A78B273002A87
:1028A00000D1F273A968344A8C464946A218120135
:1028B0006244116051465160304991600021D160FD
:1028C000997059701970737B9B46002B35D022008C
:1028D0001900B068736898473268002820D05B46BA
:1028E00058465B005B44D719033BB870D118D35CE2
:1028F000002B00D07B705B460C7073735C451DD061
:10290000002626E06B68BFF35F8F1C6088F3108899
:1029100001204042F0BCBB46B246A946A046F8BDE5
:102920005B465B005B44033BD3189C70D119D25DBE
:10293000002A00D05A705B460B7074734A465346A7
:10294000287D00F0EBFA061EDAD02100286800F09E
:1029500007FDEB681B19013B19786B68BFF35F8FAC
:1029600000221A6088F310880020002ED2D10802BD
:102970002043CFE76C0A0020FFFFFF0F6D250010FA
:1029800010B5124C6368002B04D00A211048FFF7E1
:10299000CBFD10BD23000F4A1021206800F080FB02
:1029A000032000F025FA032000F028FB03200A4949
:1029B00000F06EFAFFF7EAFA084B9C4603236044E6
:1029C0002375074B80006060DC60DEE76C0A002046
:1029D000482B0020392500109D26001040000034AF
:1029E0001C2B0020004870476C0A0020F0B55746A9
:1029F0004E464546DE46E0B585B0019310AB1B78E8
:102A00000600039300239A46984600927268EFF3FB
:102A1000108972B61368002BFCD0BFF35F8F356846
:102A2000AC7B002C49D067002B683F19033FDB19B2
:102A30005A78AA73002A00D1EA73B1684F4A8C46CB
:102A400000980199A21812016244106051600E9919
:102A500091600F99D16042469A705A701A706B7BE0
:102A60009B46002B45D022001900A8686B68984748
:102A70002A68002830D05B4658465B005B44D71973
:102A8000033BB870D118D35C002B00D07B705B4641
:102A90000C706B735C452DD0F3681B19013B1878E3
:102AA0007368BFF35F8F42461A6089F310885346FC
:102AB000002B2CD10002204307E07368BFF35F8F27
:102AC0001C6089F310880120404205B0F0BCBB4671
:102AD000B246A946A046F0BD5B465B005B44033BA3
:102AE000D3189C70D119D25D002A00D05A705B4671
:102AF0000B706C73307D009A019B00F00FFA8246D8
:102B00000028C9D02100306800F02AFCC4E7039BEC
:102B1000002B30D00E9B00200F9998470300040033
:102B20000D000B4327D000290DDA0098019902000F
:102B30000B00121BAB41994213D818D0009201939D
:102B4000039B9A4662E700F05FF902000B00A418AD
:102B50005D4100940195A94203D8F1D100998A42C0
:102B6000EED901235B42DC1700930194E8E700995A
:102B70009142E3D9F5E70020A7E7C046FFFFFF0F2A
:102B8000F0B504000D0006267642F717C646361942
:102B90006F4100B58F4213D810D000F035F93200E4
:102BA0003B00121A8B41002B14DC002B37D029007C
:102BB000200000F05DF980BCB846F0BD8642ECD93B
:102BC0000026002700F020F932003B00121A8B414A
:102BD000002BEADD30003900FFF744FE0028E6DB79
:102BE00000239846BC460F4A0F4F7B6A9C4504D889
:102BF000B96A8E42DBD99C45D9D11168EFF31080B8
:102C000072B60B68002BFCD0BFF35F8F1368BFF365
:102C10005F8F4146196080F3108820BFE5E7002AE6
:102C2000C5D0D7E7482B00200040054070B506000E
:102C300000F0EAF8FA2204000D0000233000002121
:102C4000920003F031FA001969418D4205D802D093
:102C5000FFF796FF70BD8442FAD901204042C117A8
:102C6000F6E7C046F8B5CE46474680B506000C00EC
:102C7000FFF7F8FD00280CDC2D4B0020596A8C4230
:102C800003D89B6A0130B34245D3C0BCB946B046B5
:102C9000F8BD20BF274D6A68EFF3108772B613683E
:102CA000002BFCD0BFF35F8F2B68C1B29C465B7BCF
:102CB0008B4235D0FF2303405A009146624612688A
:102CC000994490464A464244033A9278002A1DD0DD
:102CD000EA68000A90464344013B1B78C0B2834235
:102CE00021D06B68BFF35F8F00221A6087F31088D2
:102CF0000F4A0020536A9C42C7D8926A0130B24200
:102D0000C3D2E01A421E9041C0B2BEE72B6998427E
:102D1000E7D12A61E5E7601A431E9841C0B2B4E7E3
:102D2000FF230340D4E7604600F01AFBD9E7C04612
:102D3000004005406C0A0020F0B5D6464F46464696
:102D4000C0B5EFF305833F22134018001038EFF3AE
:102D5000108C72B6204D2A68002AFCD0BFF35F8F1A
:102D60000122110081401D4C884661631C491700F7
:102D70000E788A463100C1400F400A4209D1BFF3A4
:102D80005F8F2F608CF31088E0BCBA46B146A8462E
:102D9000F0BD14498200646A51588C420FD3124B23
:102DA000D25843469E4353461E70BFF35F8F0023A5
:102DB0002B608CF31088002AE6D09047E4E70B4A9A
:102DC0009B00904643441A681A60BFF35F8F00234C
:102DD0002B608CF31088D7E7280100D00040054015
:102DE000862F00203C2F0020301D0020D03F0540C2
:102DF00010B50100024A0348FFF726F810BDC0468F
:102E0000E8120110742F0020034B596A0A00986AD7
:102E1000596A8A42FAD170470040054070B50400F3
:102E20000D00124A536A1900966A536A8B42FAD10E
:102E30003000190024184D41AB4211D80ED02B00A0
:102E40000A494A6A9A42FCD307D1084A02E0516A09
:102E5000994202D1916AA142F9D370BDA642EED93E
:102E6000012301246442E5175B42E9E70040054085
:102E7000064A536A9942FCD807D1044B02E05A6AC9
:102E8000914202D19A6A8242F9D3704700400540CC
:102E900070B504000D00EFF3108672B61A4A13687D
:102EA000002BFCD0BFF35F8F002D1BD02000FFF75D
:102EB000B9F8164981420AD02000FFF7BBF801217A
:102EC0002000FFF77FF80123A340114A1360114B44
:102ED000A400E550BFF35F8F00220B4B1A6086F30E
:102EE000108870BD0B4BA200D5500122A2400A49A8
:102EF00020000B7893430B700449FFF7B7F90021CA
:102F00002000FFF75FF8E5E7280100D0392D001019
:102F100038600540301D0020862F0020F0B54F4658
:102F2000D6464646C0B507002F4C616A0D00A66A1A
:102F3000616AA942FAD18B4208D805D00120E0BCD1
:102F4000BA46B146A846F0BDB242F7D9EFF3108AAF
:102F500072B6264801680029FCD0BFF35F8F0125B7
:102F6000BD402349204C8846097889462943C9B287
:102F70008C46414660460870391D1E4889006563CD
:102F80000A51B9000B50216A0020294219D0616A08
:102F90000800A66A616A8142FAD18B4219D801D130
:102FA000B24216D8CC451DD00F4B1F201D625D6369
:102FB00001230740BB40104A1E38136043464A466F
:102FC0001A70BFF35F8F0022084B1A608AF31088D3
:102FD000B5E70020BFF35F8F0022044B1A608AF32D
:102FE0001088ACE70120ECE700400540280100D044
:102FF000862F00203C2F002080E200E0EFF3108CB1
:1030000072B60A490B68002BFCD0BFF35F8F012317
:103010008340074A0748136202789A430270BFF35D
:103020005F8F00230B608CF310887047280100D05D
:1030300000400540862F002070B5050014001600E2
:10304000002915D00C00002A12D080686B689847C0
:10305000296800280ED073009B196200033B1219E7
:10306000CB18033A9C7088188A5C002A15D1067028
:10307000200070BD63001B197200033B9219CB182E
:10308000033A9E7088188A5C002A02D104703400CA
:10309000EEE75A7004703400EAE75A700670E7E70A
:1030A00030B583600023CCB24373013304734260B4
:1030B0008373C4730D000068012C06D9421C0133D0
:1030C000DBB2137003329C42F9D1FF2129404B003F
:1030D0005918002340180338437030BDF8B5CE4668
:1030E000474606000C0080B5002907D04D00036854
:1030F0006D18033D5A195778002F04D12000C0BC29
:10310000B946B046F8BD7900C91903398846434429
:103110005978894600215970517073683A0021002E
:10312000806898473368002814D042469A189470F3
:1031300059195B5D002B00D053700F702700494672
:103140003000FFF7CBFF390002003000FFF774FFBB
:103150000400D3E7424641465D19AF709A185B5CA4
:10316000002B00D06B701470E9E7C046F0B55746ED
:103170004546DE464E46E0B50D006B0001685B1922
:10318000DF1E0400C85D83B00192CA1900284CD02C
:1031900043001B18033BCB185E78B446002E16D1B3
:1031A000019E002E3ED0E67B002E04D073009B19BA
:1031B000CB18033B5D70E57300282FD100235370BB
:1031C00003B0F0BCBB46B246A946A046F0BD7200B3
:1031D0006244033A89184A78904600224A70914620
:1031E0005A70010032002000FFF726FF4346824656
:1031F000002B07D05B0021684344033BCB185A786F
:10320000002A16D1424651462000FFF715FF2168DB
:10321000019BCA19002BC6D10028CFD043001B1830
:10322000033BCB1800219970C8E7019B002BBAD152
:10323000C4E7500080180338091848788346484688
:103240004870587041462000FFF7F6FE5946804608
:103250002000FFF743FF414602002000FFF7ECFE8D
:103260008046CFE7F0B557464546DE464E46E0B5C8
:1032700083B00191457B04006B0000685B19DF1E81
:10328000C15DC21900294ED04B005B18033BC31827
:103290005E78B446002E18D1019E002E40D0E67B09
:1032A000002E04D073009B19C318033B5D70E573B7
:1032B000002931D1002328005370617303B0F0BCA2
:1032C000BB46B246A946A046F0BD72006244033A2E
:1032D0008018427890460022427091465A70200031
:1032E0003200FFF7A9FE43468246002B07D05B0061
:1032F00021684344033BCB185A78002A17D1424631
:1033000051462000FFF798FE019B01002068C2197A
:10331000002BC4D10029CDD04B005B18033BC31850
:1033200000209870C6E7019B002BB8D1C2E750007F
:103330008018033809184878834648464870587002
:1033400041462000FFF778FE594680462000FFF7EF
:10335000C5FE414602002000FFF76EFE8046CEE724
:1033600070B5040000292CD0437B8B422ED0056819
:1033700048004018033828188278002A21D05300CA
:103380009B18033BEA5CEE188A4202D11BE0002A3C
:1033900008D053009B18033BEB185A788A42F6D1A9
:1033A00042785A7000230122837043702000FFF797
:1033B000DDFE617B02002000FFF73EFE607301200E
:1033C00000E0002070BD43783370EBE70122190064
:1033D000FFF7CCFE60730120F4E7C04610B504008F
:1033E000FEF7D4FD01002000FFF79EF8FF232371B4
:1033F000BFF35F8F10BDC04610B50400FEF7C6FDD9
:1034000001002000FFF790F8FF23A380BFF35F8F38
:1034100010BDC04610B504000120FEF7C3FD044BEB
:103420009C46604480002060BFF35F8F10BDC046A3
:1034300040000034F8B5040006200D0000F094FAB6
:10344000002844D02A4B2B49E21853425A4180238A
:10345000DB039C469205284B62441A60274B1A6096
:1034600010008B689843FBD1214B8021E3185A420E
:103470005341234A5B0049009952062000F074FA38
:103480002900C00001F0CCFEC30921D14027012151
:10349000260080256162A36200232C36AD013543EE
:1034A0002B60062000F060FA3900800001F0B8FEC1
:1034B0006023E26A53406E221A4080235B0133434B
:1034C0001A60104B236310232B600D3BA364F8BDDF
:1034D0000D4A934203D900230C4F0D49D8E77F22B0
:1034E0001040013040089F0119003F180300CFE74A
:1034F0000080FCBF00C0004000E0004000F0004041
:10350000542F002001030000FEFF0000C0FF3F0019
:10351000FFFF00002C4B2D4A70B51A602C4A2D4B32
:103520002D491A6014008B689C43FBD12B4D2C4E07
:10353000B54208D2013E761BB60808CD9847230055
:103540000134B342F9D100F0B1F8264A214B1A6098
:10355000214A9368DB43DB01DD09002BF9D14022CE
:10356000214B224C224E9A675A671A67DA66B44298
:1035700008D223682000002B20D00834FFF73CFF3E
:10358000B442F6D31B4E1C4CC022A168300002F09E
:10359000F3FEA660FEF7ECFCFEF79CFFFFF7F0F9E8
:1035A000164C174EB44208D2013E361BB60808CC62
:1035B00098472B0001359E42F9D170BD0834FFF7C2
:1035C0000DFFB442D5D3DDE700E00040BFCDFBFEE8
:1035D000FE7F3C0000F0004000C000401C150020B1
:1035E0002C150020FFFFFF0100F001401415002002
:1035F0001C1500200000002000ED00E02C1500202C
:1036000034150020094A03001068002805D0084935
:10361000C3188B4207D81360704706480449C31883
:1036200010608B42F7D901204042F5E7F4240020D6
:1036300000000420882F002000BEFDE710B50C001C
:1036400082B01900002A09D0064B019200930200B3
:103650002300054801F044FD00BEFDE7034B1A00BE
:10366000F3E7C0460C1301101C130110D810011011
:103670000FB400B5084883B002F0E6FF049B002BAE
:1036800007D005A91800019101F04AFD034802F096
:10369000DBFF00BEFDE7C0464C1301105C130110B8
:1036A00010B50148FFF7E4FF6013011030B50C209E
:1036B00083B000F0B7F9FEF753FC00280ED0944B0E
:1036C000944A1A605A609A60DA601A615A619A6183
:1036D000DA611A62904A5A6203B030BD8F4CA0671B
:1036E00000F0F4F901228E4B1A60636C012BFCD1BF
:1036F00003228C4B1A60894A936B012BFCD1013356
:103700000121894A89480093043300F033F90523E5
:10371000874A00930121874800F02CF9864B5A68AC
:10372000FF2A02D8802252005A608022784C7D4BBA
:1037300021691201804D1A60002905D0606901F0ED
:103740006FFD01300138FDD1E0217B4B02201A686A
:103750001140802252012A43116019684840032118
:103760000140116004219A681142FCD0802280211E
:1037700092012A4309011160802252005A606F4B66
:1037800023616F4B5968FF2900D85A600321644AAE
:103790006B4B116002399A681142FCD0E0201A6824
:1037A0001040802252011A431060186848400321DB
:1037B00001400220116062498A681042FCD08022D8
:1037C00092011343802212011A6080225D4B520045
:1037D0004A6063615C4B5968FF2900D85A608022B7
:1037E0005A4BE1691201584D1A60002905D06069F1
:1037F00001F016FD01300138FDD1E02252490B687D
:103800001A4080235B012B431A60802380229B0196
:103810002B4312011A6080223E4B52004A60E36142
:103820004B4B5968FF2900D85A608022494B216AC6
:103830001201474D1A60002905D0606901F0F0FCC3
:1038400001300138FDD1E02241490B681A40802344
:103850005B012B431A60802380229B012B431201C2
:103860001A60802380225B004B602A4BD2022362C5
:10387000394B5968914200D25A608022374B616AB5
:103880001201354D1A60002905D0606901F0C8FCAD
:1038900001300138FDD1E0222F490B681A40802306
:1038A0005B012B431A60802380229B012B43120172
:1038B0001A608023DB024B60174B6362284B5A6807
:1038C000FF2A02D8802252005A608022254BA1692B
:1038D0001201234D1A60002905D0606901F0A0FC97
:1038E00001300138FDD1E0221D490B681A408023C8
:1038F0005B012B431A60802380229B012B43120122
:103900001A6080235B004B600E4BA361E4E6C04667
:103910004C1E0020006CDC021BB700000080004041
:103920003CB0004030B00040002F68590080024099
:10393000008C864700C0024030800040001BB7006A
:103940003C800040405973075480004054B0004010
:103950006080004060B000406C8000406CB000406F
:103960004880004048B00040014B8000C05870477C
:103970004C1E0020F0B5C646040000B50C20904651
:103980001F000E0001F04CFC4101091A8D01691A5B
:10399000C90009188901404601F042FC069B3F041A
:1039A0001A0323681743002B22DB1A4B1A4DE21827
:1039B00053425A4180235B019C461203174B6244D9
:1039C0001A60174B1A601100AB689943FBD1C022F3
:1039D000231D92011A4321232660A06013602368EF
:1039E000002BFCDA0823E760136080BCB846F0BD0A
:1039F0003F2322681340B342D7D1A3681B051B0D98
:103A00008342D2D1EE22E368D2021340BB42CCD132
:103A1000EBE7C0460040FDBF00C0004000E00040B2
:103A200000F000408023024A9B000343D3627047AA
:103A30000080054010B5140080221B4BD2051A608F
:103A400000281AD00123194A1843194BDA61194A80
:103A500042401A62596298628022134BD2051A6062
:103A60001549164A1160E022D2041A60002C07D1D1
:103A70008022134B12061A6010BD0D4BD861EBE784
:103A800063011B1B9A008023121912015B049A42E6
:103A900000D30C4A0C4B1A60054B5A608022084B2D
:103AA000D2051A60E8E7C04600B00540D3C007B0B1
:103AB000008005402D3FF84FFCFF01000820014029
:103AC00000A00540FFFFFF0010290020AA23064A9E
:103AD0001B0113602F230549D360054B1960536800
:103AE000002BFCDA7047C0460040024000B0FA00EC
:103AF000006002409A4200D2885470477047C04626
:103B0000F8B557464E464546DE46E0B599460A9B0F
:103B100007009A460D9B8846934615000B9E9B070F
:103B200010D10C9B9E420DD29D1B14000E005D44D3
:103B300022004B46013431002020B847A542F7D17E
:103B4000B0460B9E002E27D0444675195346AA1B3B
:103B5000013E985D21004B46B847002EF6D1230068
:103B60002C0098460D9B9B070FD55B46E51A0C9BD6
:103B7000AB420AD94646984622004B4631002020E7
:103B80000135B8470134A845F6D82000F0BCBB4643
:103B9000B246A946A046F8BD2C00E3E7F0B54F4673
:103BA0004646D646C0B584B098460EAB1B78129FE9
:103BB000994694460D9C109B119EBA0725D4002E61
:103BC0004BD19C4200D3BFE001223A4092461F2CC9
:103BD00000D9B8E00C9A551E302201E0202C03D009
:103BE00001342A55A342F9D85246002A0DD0A642E4
:103BF0000BD9202C44D00C9A551E302201E0202CE9
:103C00003ED001342A55B442F9D1FA064DD57A0591
:103C10003FD4002C39D10F9B102B00D179E00F9BA2
:103C2000022B00D18AE030230C9A012413704B46FA
:103C3000002B3FD02D230C9A135501340C9B624668
:103C400000930397434602960194FFF759FF04B08F
:103C5000E0BCBA46B146A846F0BD012215003D4081
:103C6000AA463A422FD04A46002A02D10C323A42A2
:103C700000D0013E9C42BAD21F2CABD9202E27D9AE
:103C80002024FA06DAD57A0503D4A3422DD0A64221
:103C90002BD00F9B102B32D0022B20D0202CCDD03C
:103CA00030220C9B1B191A700134202CC6D04B46B5
:103CB000002BBFD17B070DD43B07BFD520230C9A27
:103CC00013550134BAE79C429FD21F2C00D881E7DC
:103CD00020249AE72B230C9A13550134AEE7202CAD
:103CE000ACD00C9B1B1901343AE0631E012C92D01E
:103CF0000F9A102A2AD0022A2FD01C00D0E7BB0628
:103D00000ED4202C9AD00C9B1A19013478231370EE
:103D1000C4E7BB060DD478230C9A01241370BFE7C7
:103D2000202C00D18AE758220C9B1B191A700134F1
:103D3000B4E758230C9A01241370B1E70C9A60334E
:103D400001241370ACE7202400265EE7023CBA068B
:103D5000E9D40C9A12191C00D8E70C9A92465344E5
:103D600062221A709AE7C04610B5002800D110BD33
:103D700002F01AFCFBE7C0460B0010B5002802D089
:103D800049681B68984710BDF0B5DE4657464E4659
:103D90004546E0B59BB09B46249B89469846259BAB
:103DA0000B900C924046424619009A4601F011FDD4
:103DB000002800D0D8E0012240465146774B5242BD
:103DC00001F002FD002800D0CEE00122404651461D
:103DD000734B524201F0E2FC002800D0C4E0002204
:103DE00000234046514601F0D9FC002800D0B9E13B
:103DF000424653460A9209938023289ADB001A40D0
:103E00000E92289A1A4201D1062326930A9A099BF8
:103E10001600134300D0C7E0289B002500261B0591
:103E200000D49BE100230D93269A0D9B9A4200DC5F
:103E30009FE1D01A431E26938023289ADB001A4361
:103E40000023002728920D93279B0024BB4200D912
:103E5000DC1B0223289A1A400E92289A134203D0A0
:103E60007B427B415B421C400D9B002B07D00A9894
:103E700009992A00330001F028FC0A9009910022D8
:103E800000234046514601F089FC002805D08020DF
:103E900000068446099961440991289A414B0B9D7B
:103EA00013400493269B0A9A0293099B0394009261
:103EB000019349465B4628000C9A00F08BF90400F8
:103EC000002F62D0289B220098061F23C01798431A
:103ED000631C984649465B466530A8470D9B002504
:103EE000DA179C18DB0F9A465440013F01E0202D61
:103EF00013D00AAA94461F23200063440A210135E7
:103F00005E1901F08DF93031317020000A2101F085
:103F100087F926000400092EE9D80523069300231B
:103F200004930A330393534605970B9F029312ABF6
:103F3000009342465B46494638000195FFF72EFE46
:103F40000E9B0400002B20D00C9BC51A279BAB4274
:103F50001BD91E0022005B46494620200135B84788
:103F60000134AE42F6D810E0289B42460493279BCA
:103F700049460393269B0B98029353460092019364
:103F80005B460C9A00F026F9040020001BB0F0BC40
:103F9000BB46B246A946A046F0BDC046FFFFEF7F34
:103FA000FFFFEFFFFFF7FFFF734B099F9C46780071
:103FB000400D604401F020FC704A714B01F0A3FBFE
:103FC000704A714B01F078FB3B03704A1B0B1A439C
:103FD00004000D00300011006D4B002201F063FB66
:103FE0006C4A6D4B01F08FFB02000B002000290092
:103FF00001F062FB01F018FC0D9001F0FDFB674A37
:10400000674B04000D0001F07EFB0022654B01F0C0
:1040100053FB01F009FC644A0600644B20002900B0
:1040200001F071FB040030000D000F9601F0E4FB7D
:104030005F4A604B01F067FB02000B002000290083
:1040400001F031FB02000B0006000F0001F05BFBEA
:10405000320004000D003B003000390001F02CFB61
:10406000002210901191544B2000290001F02DFBEB
:104070000022524B01F020FB02000B00200029001F
:1040800001F023FB00224E4B01F016FB02000B0057
:104090002000290001F019FB0D00802104003200EE
:1040A0003B000020C90501F0FEFA02000B002000D1
:1040B000290001F001FB02000B001098119901F09A
:1040C00004FB0022314B01F0F7FA3E4B0F9C9C465B
:1040D00064440022230501F016FB05000E000200D7
:1040E0000B000A98099901F059FB00280AD00D9B92
:1040F0002800013B31000D930022304B01F0E5FA1E
:1041000005000E00C6270D992B0063318F42BF4179
:1041100028997F420437090500D495E6334300D13E
:1041200082E6099C284A2100284B0A9801F044FBAA
:10413000002808D000222100254B0A9801F02EFB10
:10414000002800D070E6269B002B00D17CE60E9B59
:104150005A1E9341269AD31A269375E60023042704
:104160000D9371E643460A9380231B06534409933B
:1041700042E6002326935FE601FCFFFFFB799F5098
:104180001344D33FB3C8608B288AC63F0000F03F7A
:104190000000F83F61436F63A787D23F71A379099D
:1041A0004F930A400000E03F1655B5BBB16B02408B
:1041B000EF39FAFE422EE63F00002C40000024407A
:1041C00000001840FF0300002D431CEBE2361A3FAD
:1041D00080842E41F0B54E46DE4657464546E0B552
:1041E00097B09946209E219F229B8346984607912F
:1041F0000C923B0032003000390001F0EAFA00284E
:1042000000D0A9E1012230003900CA4B524201F02E
:10421000C5FA002800D0E1E0012230003900C64B89
:10422000524201F0D1FA002800D0B7E0002230005D
:104230003900C24B01F0C8FA002800D099E00022F2
:1042400030003900BE4B01F0A9FA002800D090E000
:10425000002200233000390001F0A0FA002800D02D
:10426000B1E000230D93249B5B0501D406239846FF
:1042700008AB9C461722002430234146624404E0E8
:10428000013413550139202C01D00929F8D888466A
:104290003000390001F0C8FA4346DA00A94B0500A6
:1042A0009B181A685B680892099301F0A5FA02004E
:1042B0000B003000390001F0F6F9089A099B01F073
:1042C00022FA0A900B9101F0D3FA824601F090FA9B
:1042D00002000B000A980B9901F0E5F900229A4BB5
:1042E0000A900B9101F070FA002800D1C0E0012380
:1042F0009C46E244504601F07BFA02000B0008980D
:10430000099901F051FA002802D000239A4601359C
:104310004346002B6AD008AB17269C460895664496
:10432000554614E001235B4243440A2128009A4683
:1043300000F076FF013430313719397028000A2136
:1043400000F06EFF092D00D8D0E0D0460500202CEB
:10435000E8D10EAB98460323249A1340012B00D1D9
:1043600096E02023249A01930392239A43460292D3
:104370001EE0249B58460493239B009601970393C9
:1043800043460C9A029307994B46FFF7FDFC17B082
:10439000F0BCBB46B246A946A046F0BD249B5B07D5
:1043A0000ED40322694B249901920391239902911F
:1043B000009358464B460C9A0799FFF7A1FBE6E796
:1043C0000422634BEFE73B0032000020002101F0A4
:1043D0006AF9012306000F000D9344E7249B039321
:1043E000239B0293042301935A4BE1E7280001F039
:1043F00003FA02000B003000390001F054F9524B6F
:10440000002206000F0001F0C9F90EAB9846002803
:104410000AD10022300039004B4B01F0D5F90028B9
:1044200002D1EB0700D50135202C94D008AA944680
:104430001723280063440A2101341E1900F0C8FE26
:104440003031280031700A2100F0C2FE051EEBD188
:104450000323249A1340012B1BD0202C00D180E78A
:104460000D9B002B35D02D224146631C0A5579E760
:1044700000220A980B99344B01F090F9002800D0E3
:1044800046E75346002B51D101239C46E2443FE7C7
:104490002024239B002BE0D00D9B002B03D1249ADA
:1044A0000C33134202D0239B013B2393239BA34253
:1044B000D3D908AB9C46172230236244202C00D16C
:1044C0004FE72399013413558C42C6D0202CF8D1E4
:1044D00047E7249B5B0724D4249A2300120700D4C7
:1044E00040E72022414601330A553BE75746089DE5
:1044F000202C00D12DE7220030214046002F09D08A
:104500000132B154202A00D123E7D3431B191B18D1
:10451000002BF5D10EAB98462E234146541C8B54EC
:1045200082E72B224146631C0A551BE7DB0700D4B8
:10453000EEE6A9E7FFFFEFFFFFFFEF7F65CDCD417F
:1045400065CDCDC1681501100000E03F6C1301106E
:10455000701301107C130110249B0393239B02937F
:1045600003230193004B23E778130110F0B5DE46D7
:104570004E4657464546E0B59FB01C00289B9146E5
:104580000993C94AC94B8B4608901A60002900D18B
:1045900018E2002320789A46002800D11AE226006B
:1045A0001D005C460AE02A006F1C4B46089D210056
:1045B000A8473D0001363078002870D02528F2D178
:1045C00010239B46083B9A46043B9846023B002139
:1045D0009C46721C107816000300203BDBB2102BA7
:1045E00003D8B34F9B00FB589F460300303B092B79
:1045F00032D900230A932A2868D0002398462E280F
:104600003ED00300683BDBB2122B1CD8A94A9B00AA
:10461000D3589F46012301321943DBE76346013239
:104620001943D7E7434601321943D3E75B460132CA
:104630001943CFE7534601321943CBE780235B0090
:104640007078194301360300253BDBB2532BAAD8FF
:10465000994A9B00D3589F4600270300B800C01911
:1046600001364000C018337830381A00303A07005D
:10467000092AF3D90A901800002398462E28C0D1A1
:1046800080237078DB0019430300303B721C092B38
:1046900000D8A1E12A2800D1B2E11600B1E7A34673
:1046A000AA462C00D14503D801235B424B449A46CD
:1046B0004B46524659460020089DA84720001FB08F
:1046C000F0BCBB46B246A946A046F0BD099B40CB14
:1046D0000A96002E03DB50780993561C8DE7283884
:1046E000014370420A9009935078561C85E7782858
:1046F00000D1DFE1582800D14CE26F2800D14FE310
:10470000622801D100F030FC10230A009A430B927A
:10471000692801D000F0A9FC0A230C934B0500D5B1
:10472000D0E10B9A802311009B0019408B461A425E
:1047300000D0A1E2802311005B0019408A461A4292
:1047400000D0B6E313005B0600D5EDE21300099933
:104750001B0601D400F076FC08C91BB2D8171A1842
:10476000424092B209919346DA0F1292002B09D17E
:10477000802310220B99DB000B4091430B91002BFF
:1047800000D0E4E20B9A6123920600D541230EA9E2
:104790001F228C46DBB262440A3B5F461395A34658
:1047A00055460C9CB2460D9316000AE03033DBB23E
:1047B00001357355A74200D2EDE2202D00D1EAE287
:1047C00007002100380000F02BFDCBB20929EDD9FC
:1047D0000D9A94466344DBB2EAE780239B0070782D
:1047E000194301362FE77078682800D1CDE1802386
:1047F0000136194327E770786C2800D1BFE1802388
:104800005B00194301361EE7462800D19BE10722D1
:10481000099B0491073393430A9A19000392424675
:1048200002920CC908980092019309912A004B4604
:104830002100FFF7CFFC01360500BCE62A006F1C03
:104840004B46089D21002520A84701363D00B2E6D1
:104850008B0700D4ADE1099B2A009A466B1C984651
:10486000534601CB21009A46089F4B46C0B2B84739
:104870000A9B9C466544012B00D886E2089B47466C
:10488000B04626004C4699463A00230001373100D5
:104890002020C847AF42F7D1A146534634004646D0
:1048A0000993013687E6C0466D4500100C290020AB
:1048B00084130110C813011014140110099B04CBB8
:1048C0009B4643460992002B00D1C6E013789C46D4
:1048D000002B00D1BDE34346013B099A0133D018B8
:1048E0000A9F130001E0834203D05A780133002A63
:1048F000F9D1099A0A979B1A0B9380230A00DB00CF
:104900001A400C92194204D00B9B434501D94346EF
:104910000B9302231A000A400D920B4200D187E14B
:104920006046002800D168E10C9B002B00D10DE10E
:10493000A844C246099B57465B1B9846089BB24653
:104940002A0026004C46994609E023003100551CF8
:10495000C8474346585D002800D126E12A00974207
:10496000F3D1A1463D00340056460D9B002B00D0EC
:1049700043E15B46013609931DE6099B1A0008CA0C
:104980009246002B48D0212211438B460EA8844624
:104990001F216144099500220F27A4460D0002E063
:1049A000202A0CD00B003C001C4020003730092C82
:1049B00000D807380132A85419090F2BF0D86446E3
:1049C000099D32E0DC4B2078089300239A460028AA
:1049D00000D0E4E5002465E6434606000A9F9800FF
:1049E000C0180132400080191678030030003038BA
:1049F000303B0928F3D93000984616000A9700E6A4
:104A0000099B023604CB9046D2434046D217104051
:104A1000804609933078F4E5102208009043113263
:104A20001043834600224905B0D55B460693082310
:104A3000059343460493102303930023029316AB7C
:104A4000019200932A004B4621000898FFF7A6F830
:104A50005346050001360993ADE513789C46002BBB
:104A600000D1F7E202235B4237E7202302009A439A
:104A7000472A04D180231B01194302239843452868
:104A800001D1202319430722099B04910733934343
:104A90000A9A19000392424602920CC908980092A1
:104AA000019309912A004B462100FFF76DF9013669
:104AB000050080E510230C930C230A009A430B9207
:104AC0004B0503D501230B9A9A430B92692800D119
:104AD00027E6642800D124E60B9A802311009B006E
:104AE00019408B461A4200D066E1802311005B001A
:104AF00019408A461A4200D039E213005B0600D5FD
:104B00003CE113001B0600D4A6E2099B04CB12046F
:104B1000120C934609935B46002B00D09AE10B9A46
:104B20001033110099430B91520500D492E10023F8
:104B30009A460B9B06930A9B0593434604930C9B52
:104B4000039300230CE12023194360E6099B0A9A92
:104B50005B1B98464B4691461F00B2462600089CB8
:104B60002A003B003100A04743460135585D00282C
:104B7000F6D14A463400B94656460A92F5E6C023B5
:104B80009B00B078194302365DE5C023B078194325
:104B9000023658E50C230A009A4314331A43103B9B
:104BA0000B920C934B058DD496E7A14634005646E4
:104BB000DBE60A9A012A00D853E26B1E9F18089B75
:104BC000B04626004C4699462A00230001353100A4
:104BD0002020C847BD42F7D1A14634004646099B74
:104BE0003A0001CB210098467D1C4B46089FC0B27D
:104BF000B847434601360993DDE40B9B0A9AA84661
:104C00009A4200D8B5E694466544ED1A089B47469B
:104C1000B04626004C4699463A0023000137310041
:104C20002020C847AF42F7D1A14634004646A0E64F
:104C30000B9A0A99531C914200D814E24B199B1A03
:104C40001F00089BB24626004C4699462A002300C6
:104C5000013531002020C847BD42F7D10A9BA1464B
:104C600001330B93099B34001B7856469C466046E3
:104C7000002800D058E67CE60722099B07339343BF
:104C8000013294469C4462465F6809921A68FB1799
:104C90001093119310981199030053400E930B0039
:104CA0007B400F9394460E9A0F9B121A8B410E92E3
:104CB0000F93FB0F6246129300233A439B463DD06D
:104CC0000B9A6123920600D541230022DBB20EA984
:104CD0000A3B8C4692460D9343461F32624413951D
:104CE000159655460E9E0F9FA24690460C9C149317
:104CF0000CE03032D2B2434601355A55BB4500D1A3
:104D00008AE1202D00D18AE106000F002200002355
:104D10003000390000F0C6FAD2B2092AE9D90D9B59
:104D20009C466244D2B2E6E7FF23099904C91340C6
:104D30001A00099117E5C046FD3A00100B9A10338E
:104D4000110099430B915205BAD500239A460B9B4B
:104D500006930A9B0593434604930C9B0393129B73
:104D600002935346019316AB2A00009321004B4651
:104D70000898FEF713FF013605001CE4FF22099B8B
:104D800002CB11408B460993C5E65346454609932D
:104D90000136FFF710FC56465C46AA46139DD6E73F
:104DA00008230C930B910B99642800D084E60B9B8D
:104DB0005B0500D586E6B4E40722099B07339343DD
:104DC000013294469C44624609921A685B6810005E
:104DD0009B4613005A46134307D10B9A1033110018
:104DE00099430B91520500D5A1E60B9A61239206D7
:104DF00000D541230022DBB20EA90A3B8C46924625
:104E00000D9343461F3262445F461295A3465546B2
:104E10000400B24690460C9E13930DE03032D2B29D
:104E2000434601355A550023BB4200D100E1202DF5
:104E300000D100E104000F003200002320003900FF
:104E400000F030FAD2B2092AE8D90D9B9C466244A0
:104E5000D2B2E5E70B9A6123920600D54123DBB27B
:104E60000EA90A3B1F228C460D93230062445C4628
:104E70001295170055469B46B2460C9E08E030330B
:104E8000DBB201357B55B4420ED3202D0CD004008B
:104E90003100200000F0C4F9CBB20929EFD90D9AF6
:104EA00094466344DBB2ECE756465C46AA46129D44
:104EB0003FE6099B1A0008CAD91713925A184A40AC
:104EC0009246DA0F1292002B08D1802310220B9900
:104ED000DB000B4091430B91002B2BD10B9A6123EC
:104EE000920600D541230EAA1F279446DBB20A3B47
:104EF0000D9567445D460993A3465446B2460C9E01
:104F000008E03033DBB201357B55B4420ED3202D9F
:104F10000CD004003100200000F082F9CBB2092946
:104F2000EFD9099A94466344DBB2ECE756465C46F7
:104F3000AB460D9D0B9B2A0006930A9B210005930F
:104F4000434604930C9B08980393129B01360293EB
:104F50005B46019316AB00934B46FEF71FFE139B77
:104F600005000993FFF727FB02230C931AE7099B1F
:104F700004CB92461293002A08D1802310220B9969
:104F8000DB000B4091430B91002B2BD10B9A61233B
:104F9000920600D541230EAA1F279446DBB20A3B96
:104FA0000D9567445D460993A3465446B2460C9E50
:104FB00008E03033DBB201357B55B4420ED3202DEF
:104FC0000CD004003100200000F02AF9CBB20929EE
:104FD000EFD9099A94466344DBB2ECE756465C4647
:104FE000AB460D9D0B9B2A0006930A9B210005935F
:104FF000434604930C9B08980393002302935B465B
:10500000019316AB00934B46FEF7C8FD129B0500BB
:1050100009930136FFF7CFFAB44200D871E6149B2A
:1050200054460E960F97AA469846159E139D8EE6F7
:10503000A64200D8FBE6139B56469846AA465C4615
:10504000129D76E508C9D8171A1842400991FFF752
:105050008AFB00230B9350E4099B04CB93460993EE
:1050600059E52F00BBE50B9301E6063B0C939AE64E
:105070000EB4012210B585B007AC08CC0100009435
:10508000524204480394FFF771FA05B010BC08BC03
:1050900003B01847F53A00100CB410B584B006AC54
:1050A00008CC0A000094010004480394FFF75EFA5C
:1050B00004B010BC08BC02B01847C046F53A001056
:1050C00000B585B0039101210290009303481300BD
:1050D0004A4202A9FFF74AFA05B000BD793D001027
:1050E0000FB410B50C4984B006AA08CA0C68039224
:1050F000002C0BD0009201220848524202A9A0477E
:10510000012004B010BC08BC04B01847180001F01E
:105110009BFA0020F5E7C0460C290020693D0010ED
:1051200010B5094A0300146884B0002C08D001228D
:1051300000910648524203A9A047012004B010BDC7
:1051400001F082FA0020F9E70C290020693D0010E7
:1051500001480421014B1847A00A00208D5100107E
:10516000014B9B6818470000A00A0020142310B5CB
:105170000100188804331B88984710BD162310B50A
:105180000100188802331B88984710BDF8B54746C0
:10519000CE4680B50F1E19D014239946043304005F
:1051A0000025012698464B461888434621681B88EF
:1051B000984701C4431E9841013540420640AF4222
:1051C000F1D13000C0BCB946B046F8BD0126F8E7C1
:1051D000124A936F9B0815D29066D166002905D0BC
:1051E000FFE7FFE7FFE7516F106F704704B58021BD
:1051F0000906C2175140002800D0C8430BF020FE1A
:10520000002104BDF0B5146E556E576F166FFFF791
:10521000E3FF1466556657671667F0BD000000D0BF
:10522000114A936F9B0813D210665166002905D06E
:10523000FFE7FFE7FFE7516F106F704704B50028E5
:1052400001D00020C0430BF0FBFD002104BDC0468F
:10525000F0B5146E556E576F166FFFF7E5FF1466C5
:10526000556657671667F0BD000000D094464E4A59
:10527000926F9208624601D230E0C046F0B54A4EC5
:10528000B56F6D08FCD3346E756E776F366F00F0B6
:1052900025F89446444A1466556657671667624671
:1052A000F0BDC0469446404A926F9208624601D2D1
:1052B00058E0C046F0B53C4EB56F6D08FCD3346E77
:1052C000756E776F366F00F04DF89446364A146667
:1052D0005566576716676246F0BDC046002B24DB53
:1052E00011D000293EDA00B5C943404200D1013156
:1052F00000F038F8C943404200D10131DB4352424B
:1053000000D1013300BD002AEBD1002801D10029D2
:1053100005D00020C90FC90701D1C043410800B51D
:105320000BF07EFD0022002300BD00B500290ADB42
:10533000DB43524200D1013300F014F8C94340422C
:1053400000D1013100BDC943404200D10131DB43EE
:10535000524200D1013300F005F8DB43524200D144
:10536000013300BD002923D1002B18D1002A0CD015
:10537000BC460D4F38667A6600210023FFE7FFE741
:10538000FFE77A6F386F67467047002801D00748FB
:10539000010000B50BF044FD0022002300BD020017
:1053A0000B00002000217047000000D0FFFFFFFF2E
:1053B000002B00D0BFE0130C28D1002AE7D080B426
:1053C000114F39667A66FFE7FFE730B4040C7B6F54
:1053D000396F1B0423433B667A66FFE7FFE7FFE76D
:1053E000C04684B27B6F3D6F1B0423433B667A66E5
:1053F000FFE7FFE7C04600232C042D0C7A6F386FBF
:1054000000196941B0BC7047000000D0F0B5944667
:105410000025140E01D112020835140F01D112011A
:105420000435940F01D192000235D40F01D15200FE
:105430000135D40B0134254F7C66254C3C660E0C9F
:1054400093B2FFE7FFE7FFE73C6F6643360C770355
:10545000BE467343DF0B5B04C01AB941130C7343A0
:10546000DB18C91ACE086643360CB64493B27343B0
:105470001F0F1B01C01AB941130C73431F0B1B05EF
:10548000C01AB941860D8F023E436643360C092D82
:1054900024DB520A7243801A7703460A6643360CAD
:1054A00016235B1BDE40DF40BF1964466643821B48
:1054B0007046043506330100D940A840C01900D316
:1054C0000131A24206D20023F0BD0000000000D04E
:1054D000FFFFFFFF121B0130F3D3F1E709277F1B0A
:1054E000FE406446A2B27243801A00D20139220CF7
:1054F0007243130C1204821A99410B007046043552
:1055000013370100F940A840801900D30131002B66
:1055100002D1A2420AD2F0BD013000D30131121BE8
:10552000FAD2013BF8D1A24200D2F0BD013000D343
:105530000131121BF7E7F0B51C0C00D080E00CB471
:1055400000251C0A04D11B02160E33431202083533
:105550001C0B04D11B01160F3343120104359C0BA5
:1055600004D19B00960F334392000235DC0B02D12D
:1055700092185B4101351C00971864410134464F75
:105580007C66464C3C660E0CFFE7FFE7FFE7C04633
:105590003C6F6643360C7703BE4697B27743C01B19
:1055A00000D20139C01B00D201399FB27743C91B19
:1055B000C91B170C77437E04FF0B801BB941CE0833
:1055C0006643360C0C2D33DBB644120B1F053A43F1
:1055D0001B0B97B27743C01B00D201399FB27743B0
:1055E000C91B170C77433E043F0C801BB941860D45
:1055F0008F023E43664329277F1BFE400C3D7746C2
:10560000AF40BF1930BCA2B2ABB272437343801A31
:105610009941220C7243130C1204801A9941020022
:105620000B000137001BA941F9D2781E0021F0BD03
:105630000C277F1BFE4077467F0BAF40FF19E0E74A
:1056400000245D1C07D0144F7D663966FFE7FFE735
:10565000FFE7FFE73C6F95B29EB265436643401B90
:10566000B141150C1E0C6543664336042F0C3E43B6
:105670002D04401BB141994204D202000B002000CE
:105680000021F0BD01D19042F7D3801A9941013435
:105690009942F2D3F6E70000000000D0FFFFFFFFC1
:1056A00048404140484018B41B4B5B68FC4601939E
:1056B00008BD04DF775A001018B4174B1B68FC466E
:1056C000019308BD00DF815A00109446134A926F7F
:1056D000920809D2624618B40F4BDB68FC4601936E
:1056E00008BD0CDF395D00100C4AF0B5146E556E24
:1056F000576F166F6246FFF7EEFF084A146655664D
:1057000057671667F0BD18B4034B9B68FC460193BE
:1057100008BD08DFDD5B001048160020000000D047
:10572000FFB550404240504059404B40594000E086
:10573000FFB5154F4C00640D03D0BC4204D10C03DF
:1057400014D80020090D09055C00640D03D0BC428B
:1057500004D11C030AD800221B0D1B0501264B4057
:1057600009D44B4003D58B4200D18242FFBD994200
:10577000FCD19042FFBD0B43DB1803431343F5D02C
:10578000C9434918FFBD0000FF07000000B5FFF73F
:10579000CFFF01D0002000BD012000BD00B5FFF704
:1057A000C7FF804100BDC04600B5FFF7C1FF01D96A
:1057B000002000BD012000BD00B5FFF7B1FF01D9F9
:1057C000002000BD012000BD00B5FFF7A9FF80410A
:1057D00000BD012040054A00121804D85A001218D2
:1057E00001D800207047012070470020704700005A
:1057F0000021002805D17047C1174840401AFAD04F
:10580000C90713B5064B1B6898470CBC441CA24043
:105810001005120B0349091B09051943114310BD5B
:10582000442B00201F04000010B54C00620D8023A3
:10583000D218DB00D21A5B057E2A10DD9E3A13DAFD
:10584000CC170903490819435242D140640001347E
:105850001532202A05DAD0400843604310BD0020ED
:1058600010BD0846604310BDC80FC018013810BDF8
:1058700018B4044B5B6AFC46019308BD24DFE95E63
:10588000001000004816002018B4044BDB6DFC46E5
:10589000019308BD5CDFF55F001000004816002092
:1058A000C94211D300B549004908002200F018F898
:1058B000002904D4002240428A41114600BD8021C3
:1058C0000906002000BD000018B4044BDB6EFC4646
:1058D000019308BD6CDFF75E001000004816002041
:1058E00018B4044B9B6FFC46019308BD78DF135F2F
:1058F000001000004816002018B4044BDB6FFC4673
:10590000019308BD7CDF815F001000004816002075
:10591000132370B51D78012D15D010DD1C48FFF73D
:105920002DFC1C4C01008022200000F025FD022DE2
:1059300006D01948FFF71AFC184B186070BD154CBB
:10594000174BA364F5E7164B124C23606360A3600A
:10595000E36023616361A361E36123626362A36225
:10596000E36223636363A363E36323646364A36405
:10597000E36423656365A365E36523666366A366E5
:10598000E36623676367A367E367A364D1E7C04661
:1059900053440000481600204C330000442B0020E4
:1059A000455A0010254A4B0094465B0D6344F0B500
:1059B00004000D005A1C24DB5A1C38D03422D21AA1
:1059C000002A1DDD3322D31A533A9A181DD401261A
:1059D0009640310001269E40300024184D41002A97
:1059E0001FDB02269640310002229A40100026005A
:1059F000002342428B412C0016401C403000210005
:105A0000F0BDCB0F0020D907FAE720260127F61AB0
:105A1000F74001269E403900300024184D41002AED
:105A2000DFDA20220226D21AD6403100DCE7CB0F83
:105A3000034ADB071A4300201100E1E701FCFFFFE6
:105A40000000F03F07B5604601880A0A0230DF2AED
:105A5000FAD1C9B2820804D30288408800041043F6
:105A600000E00068014A5050039007BD481600202E
:105A70000FB403BC0CBCF0B50124E407634000E0A4
:105A8000F0B50C0DCF0F661E3605891B640503D3D8
:105A9000C943404200D30131640D03D0661CF60AAD
:105AA00007D0E41B00207F00791C89078912803C05
:105AB00024031D0DDF0F6E1E36059B1B6D0503D3E2
:105AC000DB43524200D301336D0D03D06E1CF60A46
:105AD00007D0ED1B00227F007B1C9B079B12803DA3
